{
  "_format": "hh-sol-artifact-1",
  "contractName": "PaymentEscrow",
  "sourceName": "contracts/PaymentEscrow.sol",
  "abi": [
    {
      "inputs": [
        {
          "internalType": "address",
          "name": "_stablecoin",
          "type": "address"
        }
      ],
      "stateMutability": "nonpayable",
      "type": "constructor"
    },
    {
      "anonymous": false,
      "inputs": [
        {
          "indexed": true,
          "internalType": "address",
          "name": "payer",
          "type": "address"
        },
        {
          "indexed": false,
          "internalType": "uint256",
          "name": "amount",
          "type": "uint256"
        }
      ],
      "name": "PaymentEscrowed",
      "type": "event"
    },
    {
      "anonymous": false,
      "inputs": [
        {
          "indexed": true,
          "internalType": "address",
          "name": "recipient",
          "type": "address"
        },
        {
          "indexed": false,
          "internalType": "uint256",
          "name": "amount",
          "type": "uint256"
        }
      ],
      "name": "PaymentReleased",
      "type": "event"
    },
    {
      "inputs": [
        {
          "internalType": "uint256",
          "name": "amount",
          "type": "uint256"
        }
      ],
      "name": "deposit",
      "outputs": [],
      "stateMutability": "nonpayable",
      "type": "function"
    },
    {
      "inputs": [],
      "name": "owner",
      "outputs": [
        {
          "internalType": "address",
          "name": "",
          "type": "address"
        }
      ],
      "stateMutability": "view",
      "type": "function"
    },
    {
      "inputs": [
        {
          "internalType": "address",
          "name": "recipient",
          "type": "address"
        },
        {
          "internalType": "uint256",
          "name": "amount",
          "type": "uint256"
        }
      ],
      "name": "releasePayment",
      "outputs": [],
      "stateMutability": "nonpayable",
      "type": "function"
    },
    {
      "inputs": [],
      "name": "stablecoin",
      "outputs": [
        {
          "internalType": "contract IERC20",
          "name": "",
          "type": "address"
        }
      ],
      "stateMutability": "view",
      "type": "function"
    }
  ],
  "bytecode": "0x608060405234801561001057600080fd5b5060405161071638038061071683398101604081905261002f91610067565b600160008190558054336001600160a01b031991821617909155600280549091166001600160a01b0392909216919091179055610097565b60006020828403121561007957600080fd5b81516001600160a01b038116811461009057600080fd5b9392505050565b610670806100a66000396000f3fe608060405234801561001057600080fd5b506004361061004c5760003560e01c80638da5cb5b14610051578063966ecf3b14610080578063b6b55f2514610095578063e9cbd822146100a8575b600080fd5b600154610064906001600160a01b031681565b6040516001600160a01b03909116815260200160405180910390f35b61009361008e36600461054d565b6100bb565b005b6100936100a3366004610585565b61018a565b600254610064906001600160a01b031681565b6100c36101ec565b6001546001600160a01b031633146101225760405162461bcd60e51b815260206004820152601e60248201527f4f6e6c79206f776e65722063616e2072656c65617365207061796d656e74000060448201526064015b60405180910390fd5b600254610139906001600160a01b03168383610245565b816001600160a01b03167fdf20fd1e76bc69d672e4814fafb2c449bba3a5369d8359adf9e05e6fde87b0568260405161017491815260200190565b60405180910390a26101866001600055565b5050565b6101926101ec565b6002546101aa906001600160a01b03163330846102ad565b60405181815233907fd00ba715ae3c46d053c474becf1eac7e6e95a328aa284790d807e1d8a0d9a5459060200160405180910390a26101e96001600055565b50565b60026000540361023e5760405162461bcd60e51b815260206004820152601f60248201527f5265656e7472616e637947756172643a207265656e7472616e742063616c6c006044820152606401610119565b6002600055565b6040516001600160a01b0383166024820152604481018290526102a890849063a9059cbb60e01b906064015b60408051601f198184030181529190526020810180516001600160e01b03166001600160e01b0319909316929092179091526102eb565b505050565b6040516001600160a01b03808516602483015283166044820152606481018290526102e59085906323b872dd60e01b90608401610271565b50505050565b6000610340826040518060400160405280602081526020017f5361666545524332303a206c6f772d6c6576656c2063616c6c206661696c6564815250856001600160a01b03166103bd9092919063ffffffff16565b8051909150156102a8578080602001905181019061035e919061059e565b6102a85760405162461bcd60e51b815260206004820152602a60248201527f5361666545524332303a204552433230206f7065726174696f6e20646964206e6044820152691bdd081cdd58d8d9595960b21b6064820152608401610119565b60606103cc84846000856103d4565b949350505050565b6060824710156104355760405162461bcd60e51b815260206004820152602660248201527f416464726573733a20696e73756666696369656e742062616c616e636520666f6044820152651c8818d85b1b60d21b6064820152608401610119565b600080866001600160a01b0316858760405161045191906105eb565b60006040518083038185875af1925050503d806000811461048e576040519150601f19603f3d011682016040523d82523d6000602084013e610493565b606091505b50915091506104a4878383876104af565b979650505050505050565b6060831561051e578251600003610517576001600160a01b0385163b6105175760405162461bcd60e51b815260206004820152601d60248201527f416464726573733a2063616c6c20746f206e6f6e2d636f6e74726163740000006044820152606401610119565b50816103cc565b6103cc83838151156105335781518083602001fd5b8060405162461bcd60e51b81526004016101199190610607565b6000806040838503121561056057600080fd5b82356001600160a01b038116811461057757600080fd5b946020939093013593505050565b60006020828403121561059757600080fd5b5035919050565b6000602082840312156105b057600080fd5b815180151581146105c057600080fd5b9392505050565b60005b838110156105e25781810151838201526020016105ca565b50506000910152565b600082516105fd8184602087016105c7565b9190910192915050565b60208152600082518060208401526106268160408501602087016105c7565b601f01601f1916919091016040019291505056fea2646970667358221220b7254c8b86b2800fc0c164f7e684be4f6e006e3b6c704cf94edd9321079fda9d64736f6c63430008140033",
  "linkReferences": {},
  "deployedLinkReferences": {}
}