{
  "_format": "hh-sol-artifact-1",
  "contractName": "Litige",
  "sourceName": "contracts/Litige.sol",
  "abi": [
    {
      "inputs": [],
      "stateMutability": "nonpayable",
      "type": "constructor"
    },
    {
      "anonymous": false,
      "inputs": [
        {
          "indexed": false,
          "internalType": "uint256",
          "name": "disputeId",
          "type": "uint256"
        },
        {
          "indexed": false,
          "internalType": "address",
          "name": "initiator",
          "type": "address"
        },
        {
          "indexed": false,
          "internalType": "uint256",
          "name": "agreementId",
          "type": "uint256"
        }
      ],
      "name": "DisputeInitiated",
      "type": "event"
    },
    {
      "anonymous": false,
      "inputs": [
        {
          "indexed": false,
          "internalType": "uint256",
          "name": "disputeId",
          "type": "uint256"
        },
        {
          "indexed": false,
          "internalType": "enum Litige.DisputeOutcome",
          "name": "outcome",
          "type": "uint8"
        }
      ],
      "name": "DisputeResolved",
      "type": "event"
    },
    {
      "anonymous": false,
      "inputs": [
        {
          "indexed": true,
          "internalType": "bytes32",
          "name": "role",
          "type": "bytes32"
        },
        {
          "indexed": true,
          "internalType": "bytes32",
          "name": "previousAdminRole",
          "type": "bytes32"
        },
        {
          "indexed": true,
          "internalType": "bytes32",
          "name": "newAdminRole",
          "type": "bytes32"
        }
      ],
      "name": "RoleAdminChanged",
      "type": "event"
    },
    {
      "anonymous": false,
      "inputs": [
        {
          "indexed": true,
          "internalType": "bytes32",
          "name": "role",
          "type": "bytes32"
        },
        {
          "indexed": true,
          "internalType": "address",
          "name": "account",
          "type": "address"
        },
        {
          "indexed": true,
          "internalType": "address",
          "name": "sender",
          "type": "address"
        }
      ],
      "name": "RoleGranted",
      "type": "event"
    },
    {
      "anonymous": false,
      "inputs": [
        {
          "indexed": true,
          "internalType": "bytes32",
          "name": "role",
          "type": "bytes32"
        },
        {
          "indexed": true,
          "internalType": "address",
          "name": "account",
          "type": "address"
        },
        {
          "indexed": true,
          "internalType": "address",
          "name": "sender",
          "type": "address"
        }
      ],
      "name": "RoleRevoked",
      "type": "event"
    },
    {
      "anonymous": false,
      "inputs": [
        {
          "indexed": false,
          "internalType": "uint256",
          "name": "disputeId",
          "type": "uint256"
        },
        {
          "indexed": false,
          "internalType": "address",
          "name": "voter",
          "type": "address"
        },
        {
          "indexed": false,
          "internalType": "enum Litige.DisputeOutcome",
          "name": "vote",
          "type": "uint8"
        }
      ],
      "name": "VoteCast",
      "type": "event"
    },
    {
      "inputs": [],
      "name": "ARBITER_ROLE",
      "outputs": [
        {
          "internalType": "bytes32",
          "name": "",
          "type": "bytes32"
        }
      ],
      "stateMutability": "view",
      "type": "function"
    },
    {
      "inputs": [],
      "name": "DEFAULT_ADMIN_ROLE",
      "outputs": [
        {
          "internalType": "bytes32",
          "name": "",
          "type": "bytes32"
        }
      ],
      "stateMutability": "view",
      "type": "function"
    },
    {
      "inputs": [],
      "name": "disputeCount",
      "outputs": [
        {
          "internalType": "uint256",
          "name": "",
          "type": "uint256"
        }
      ],
      "stateMutability": "view",
      "type": "function"
    },
    {
      "inputs": [
        {
          "internalType": "uint256",
          "name": "",
          "type": "uint256"
        }
      ],
      "name": "disputes",
      "outputs": [
        {
          "internalType": "address",
          "name": "initiator",
          "type": "address"
        },
        {
          "internalType": "uint256",
          "name": "agreementId",
          "type": "uint256"
        },
        {
          "internalType": "enum Litige.DisputeOutcome",
          "name": "outcome",
          "type": "uint8"
        },
        {
          "internalType": "uint256",
          "name": "votesRefund",
          "type": "uint256"
        },
        {
          "internalType": "uint256",
          "name": "votesRelease",
          "type": "uint256"
        },
        {
          "internalType": "bool",
          "name": "resolved",
          "type": "bool"
        }
      ],
      "stateMutability": "view",
      "type": "function"
    },
    {
      "inputs": [
        {
          "internalType": "uint256",
          "name": "disputeId",
          "type": "uint256"
        }
      ],
      "name": "finalizeDispute",
      "outputs": [],
      "stateMutability": "nonpayable",
      "type": "function"
    },
    {
      "inputs": [
        {
          "internalType": "uint256",
          "name": "disputeId",
          "type": "uint256"
        }
      ],
      "name": "getDisputeOutcome",
      "outputs": [
        {
          "internalType": "enum Litige.DisputeOutcome",
          "name": "",
          "type": "uint8"
        }
      ],
      "stateMutability": "view",
      "type": "function"
    },
    {
      "inputs": [
        {
          "internalType": "bytes32",
          "name": "role",
          "type": "bytes32"
        }
      ],
      "name": "getRoleAdmin",
      "outputs": [
        {
          "internalType": "bytes32",
          "name": "",
          "type": "bytes32"
        }
      ],
      "stateMutability": "view",
      "type": "function"
    },
    {
      "inputs": [
        {
          "internalType": "bytes32",
          "name": "role",
          "type": "bytes32"
        },
        {
          "internalType": "address",
          "name": "account",
          "type": "address"
        }
      ],
      "name": "grantRole",
      "outputs": [],
      "stateMutability": "nonpayable",
      "type": "function"
    },
    {
      "inputs": [
        {
          "internalType": "bytes32",
          "name": "role",
          "type": "bytes32"
        },
        {
          "internalType": "address",
          "name": "account",
          "type": "address"
        }
      ],
      "name": "hasRole",
      "outputs": [
        {
          "internalType": "bool",
          "name": "",
          "type": "bool"
        }
      ],
      "stateMutability": "view",
      "type": "function"
    },
    {
      "inputs": [
        {
          "internalType": "uint256",
          "name": "agreementId",
          "type": "uint256"
        }
      ],
      "name": "initiateDispute",
      "outputs": [
        {
          "internalType": "uint256",
          "name": "",
          "type": "uint256"
        }
      ],
      "stateMutability": "nonpayable",
      "type": "function"
    },
    {
      "inputs": [
        {
          "internalType": "bytes32",
          "name": "role",
          "type": "bytes32"
        },
        {
          "internalType": "address",
          "name": "account",
          "type": "address"
        }
      ],
      "name": "renounceRole",
      "outputs": [],
      "stateMutability": "nonpayable",
      "type": "function"
    },
    {
      "inputs": [
        {
          "internalType": "bytes32",
          "name": "role",
          "type": "bytes32"
        },
        {
          "internalType": "address",
          "name": "account",
          "type": "address"
        }
      ],
      "name": "revokeRole",
      "outputs": [],
      "stateMutability": "nonpayable",
      "type": "function"
    },
    {
      "inputs": [
        {
          "internalType": "bytes4",
          "name": "interfaceId",
          "type": "bytes4"
        }
      ],
      "name": "supportsInterface",
      "outputs": [
        {
          "internalType": "bool",
          "name": "",
          "type": "bool"
        }
      ],
      "stateMutability": "view",
      "type": "function"
    },
    {
      "inputs": [
        {
          "internalType": "uint256",
          "name": "disputeId",
          "type": "uint256"
        },
        {
          "internalType": "enum Litige.DisputeOutcome",
          "name": "voteOutcome",
          "type": "uint8"
        }
      ],
      "name": "voteOnDispute",
      "outputs": [],
      "stateMutability": "nonpayable",
      "type": "function"
    }
  ],
  "bytecode": "0x608060405234801561001057600080fd5b5061001c60003361004b565b6100467fbb08418a67729a078f87bbc8d02a770929bb68f5bfdf134ae2ead6ed38e2f4ae3361004b565b6100ea565b6000828152602081815260408083206001600160a01b038516845290915290205460ff166100e6576000828152602081815260408083206001600160a01b03851684529091529020805460ff191660011790556100a53390565b6001600160a01b0316816001600160a01b0316837f2f8788117e7eff1d82e926ec794901d17c78024a50270940304540a733656f0d60405160405180910390a45b5050565b610d4e806100f96000396000f3fe608060405234801561001057600080fd5b50600436106100ea5760003560e01c806356989a831161008c578063a217fddf11610066578063a217fddf1461026b578063a28889e114610273578063ada6b0d41461027c578063d547741f1461028f57600080fd5b806356989a831461023257806371635c031461024557806391d148541461025857600080fd5b806336568abe116100c857806336568abe1461015d57806339f0a711146101705780634d104adf146101a4578063564a565d146101cb57600080fd5b806301ffc9a7146100ef578063248a9ca3146101175780632f2ff15d14610148575b600080fd5b6101026100fd366004610a40565b6102a2565b60405190151581526020015b60405180910390f35b61013a610125366004610a6a565b60009081526020819052604090206001015490565b60405190815260200161010e565b61015b610156366004610a83565b6102d9565b005b61015b61016b366004610a83565b610303565b61019761017e366004610a6a565b6000908152600260208190526040909120015460ff1690565b60405161010e9190610af7565b61013a7fbb08418a67729a078f87bbc8d02a770929bb68f5bfdf134ae2ead6ed38e2f4ae81565b6102206101d9366004610a6a565b60026020819052600091825260409091208054600182015492820154600383015460048401546005909401546001600160a01b03909316949360ff92831693919290911686565b60405161010e96959493929190610b05565b61015b610240366004610a6a565b610386565b61013a610253366004610a6a565b61049f565b610102610266366004610a83565b61054b565b61013a600081565b61013a60015481565b61015b61028a366004610b48565b610574565b61015b61029d366004610a83565b610717565b60006001600160e01b03198216637965db0b60e01b14806102d357506301ffc9a760e01b6001600160e01b03198316145b92915050565b6000828152602081905260409020600101546102f48161073c565b6102fe8383610749565b505050565b6001600160a01b03811633146103785760405162461bcd60e51b815260206004820152602f60248201527f416363657373436f6e74726f6c3a2063616e206f6e6c792072656e6f756e636560448201526e103937b632b9903337b91039b2b63360891b60648201526084015b60405180910390fd5b61038282826107cd565b5050565b7fbb08418a67729a078f87bbc8d02a770929bb68f5bfdf134ae2ead6ed38e2f4ae6103b08161073c565b6000828152600260205260409020600581015460ff16156104065760405162461bcd60e51b815260206004820152601060248201526f105b1c9958591e481c995cdbdb1d995960821b604482015260640161036f565b80600401548160030154101561041d576002610420565b60015b8160020160006101000a81548160ff0219169083600281111561044557610445610abf565b021790555060058101805460ff1916600117905560028101546040517f2ffcfee146bc0d5ff304c6b65111a0d485af9456dc64eee7d66ebdcc90b223ea9161049291869160ff1690610b71565b60405180910390a1505050565b60018054600091826104b083610b9b565b9091555050600180546000908152600260208190526040822080546001600160a01b0319163317815580840186905590810180549193909160ff19169083021790555060058101805460ff191690556001546040805191825233602083015281018490527f91b7e4fd59782af1e5db9827d2c4c5c623e6a8e41a21421e68702994e12f06d89060600160405180910390a15050600154919050565b6000918252602082815260408084206001600160a01b0393909316845291905290205460ff1690565b7fbb08418a67729a078f87bbc8d02a770929bb68f5bfdf134ae2ead6ed38e2f4ae61059e8161073c565b6000838152600260205260409020600581015460ff16156106015760405162461bcd60e51b815260206004820152601860248201527f4469737075746520616c7265616479207265736f6c7665640000000000000000604482015260640161036f565b33600090815260068201602052604090205460ff16156106535760405162461bcd60e51b815260206004820152600d60248201526c105b1c9958591e481d9bdd1959609a1b604482015260640161036f565b3360009081526006820160205260409020805460ff1916600190811790915583600281111561068457610684610abf565b036106a55760038101805490600061069b83610b9b565b91905055506106d6565b60028360028111156106b9576106b9610abf565b036106d6576004810180549060006106d083610b9b565b91905055505b7feba4866100b822f0f391e610e7edfab790b9e8766c0012733c26b2f1858e8dd784338560405161070993929190610bb4565b60405180910390a150505050565b6000828152602081905260409020600101546107328161073c565b6102fe83836107cd565b6107468133610832565b50565b610753828261054b565b610382576000828152602081815260408083206001600160a01b03851684529091529020805460ff191660011790556107893390565b6001600160a01b0316816001600160a01b0316837f2f8788117e7eff1d82e926ec794901d17c78024a50270940304540a733656f0d60405160405180910390a45050565b6107d7828261054b565b15610382576000828152602081815260408083206001600160a01b0385168085529252808320805460ff1916905551339285917ff6391f5c32d9c69d2a47ea670b442974b53935d1edc7fd64eb21e047a839171b9190a45050565b61083c828261054b565b610382576108498161088b565b61085483602061089d565b604051602001610865929190610c03565b60408051601f198184030181529082905262461bcd60e51b825261036f91600401610c78565b60606102d36001600160a01b03831660145b606060006108ac836002610cab565b6108b7906002610cc2565b67ffffffffffffffff8111156108cf576108cf610cd5565b6040519080825280601f01601f1916602001820160405280156108f9576020820181803683370190505b509050600360fc1b8160008151811061091457610914610ceb565b60200101906001600160f81b031916908160001a905350600f60fb1b8160018151811061094357610943610ceb565b60200101906001600160f81b031916908160001a9053506000610967846002610cab565b610972906001610cc2565b90505b60018111156109ea576f181899199a1a9b1b9c1cb0b131b232b360811b85600f16601081106109a6576109a6610ceb565b1a60f81b8282815181106109bc576109bc610ceb565b60200101906001600160f81b031916908160001a90535060049490941c936109e381610d01565b9050610975565b508315610a395760405162461bcd60e51b815260206004820181905260248201527f537472696e67733a20686578206c656e67746820696e73756666696369656e74604482015260640161036f565b9392505050565b600060208284031215610a5257600080fd5b81356001600160e01b031981168114610a3957600080fd5b600060208284031215610a7c57600080fd5b5035919050565b60008060408385031215610a9657600080fd5b8235915060208301356001600160a01b0381168114610ab457600080fd5b809150509250929050565b634e487b7160e01b600052602160045260246000fd5b60038110610af357634e487b7160e01b600052602160045260246000fd5b9052565b602081016102d38284610ad5565b6001600160a01b03871681526020810186905260c08101610b296040830187610ad5565b84606083015283608083015282151560a0830152979650505050505050565b60008060408385031215610b5b57600080fd5b82359150602083013560038110610ab457600080fd5b82815260408101610a396020830184610ad5565b634e487b7160e01b600052601160045260246000fd5b600060018201610bad57610bad610b85565b5060010190565b8381526001600160a01b038316602082015260608101610bd76040830184610ad5565b949350505050565b60005b83811015610bfa578181015183820152602001610be2565b50506000910152565b7f416363657373436f6e74726f6c3a206163636f756e7420000000000000000000815260008351610c3b816017850160208801610bdf565b7001034b99036b4b9b9b4b733903937b6329607d1b6017918401918201528351610c6c816028840160208801610bdf565b01602801949350505050565b6020815260008251806020840152610c97816040850160208701610bdf565b601f01601f19169190910160400192915050565b80820281158282048414176102d3576102d3610b85565b808201808211156102d3576102d3610b85565b634e487b7160e01b600052604160045260246000fd5b634e487b7160e01b600052603260045260246000fd5b600081610d1057610d10610b85565b50600019019056fea2646970667358221220dca33347e93ddf68be53cc106b942cab989a6da81093d7fd6d47786e5b248c1a64736f6c63430008140033",
  "linkReferences": {},
  "deployedLinkReferences": {}
}