{"contracts/OracleMock.sol":{"OracleMock":{"abi":[{"anonymous":false,"inputs":[{"indexed":false,"internalType":"int256","name":"newAnswer","type":"int256"}],"name":"LatestAnswerUpdated","type":"event"},{"inputs":[],"name":"latestAnswer","outputs":[{"internalType":"int256","name":"","type":"int256"}],"stateMutability":"view","type":"function"},{"inputs":[],"name":"latestRoundData","outputs":[{"internalType":"uint80","name":"roundId","type":"uint80"},{"internalType":"int256","name":"answer","type":"int256"},{"internalType":"uint256","name":"startedAt","type":"uint256"},{"internalType":"uint256","name":"updatedAt","type":"uint256"},{"internalType":"uint80","name":"answeredInRound","type":"uint80"}],"stateMutability":"view","type":"function"},{"inputs":[{"internalType":"int256","name":"_answer","type":"int256"}],"name":"setLatestAnswer","outputs":[],"stateMutability":"nonpayable","type":"function"}],"evm":{"bytecode":{"linkReferences":{},"object":"608060405234801561001057600080fd5b50610124806100206000396000f3fe6080604052348015600f57600080fd5b5060043610603c5760003560e01c806304ea97b014604157806350d25bcd146052578063feaf968c14606d575b600080fd5b6050604c36600460d6565b609b565b005b605a60005481565b6040519081526020015b60405180910390f35b60008054604080518381526020810192909252429082018190526060820152608081019190915260a0016064565b60008190556040518181527f8e4e26ef193c8838546bdc7f69655bf260ace719057e892055b21c089aaf42d29060200160405180910390a150565b60006020828403121560e757600080fd5b503591905056fea26469706673582212201c9b39b7c4e0d5f05dc0fac1d847eb70d69340e173fdeda78ccf4f9f74d96b3864736f6c63430008140033","opcodes":"PUSH1 0x80 PUSH1 0x40 MSTORE CALLVALUE DUP1 ISZERO PUSH2 0x10 JUMPI PUSH1 0x0 DUP1 REVERT JUMPDEST POP PUSH2 0x124 DUP1 PUSH2 0x20 PUSH1 0x0 CODECOPY PUSH1 0x0 RETURN INVALID PUSH1 0x80 PUSH1 0x40 MSTORE CALLVALUE DUP1 ISZERO PUSH1 0xF JUMPI PUSH1 0x0 DUP1 REVERT JUMPDEST POP PUSH1 0x4 CALLDATASIZE LT PUSH1 0x3C JUMPI PUSH1 0x0 CALLDATALOAD PUSH1 0xE0 SHR DUP1 PUSH4 0x4EA97B0 EQ PUSH1 0x41 JUMPI DUP1 PUSH4 0x50D25BCD EQ PUSH1 0x52 JUMPI DUP1 PUSH4 0xFEAF968C EQ PUSH1 0x6D JUMPI JUMPDEST PUSH1 0x0 DUP1 REVERT JUMPDEST PUSH1 0x50 PUSH1 0x4C CALLDATASIZE PUSH1 0x4 PUSH1 0xD6 JUMP JUMPDEST PUSH1 0x9B JUMP JUMPDEST STOP JUMPDEST PUSH1 0x5A PUSH1 0x0 SLOAD DUP2 JUMP JUMPDEST PUSH1 0x40 MLOAD SWAP1 DUP2 MSTORE PUSH1 0x20 ADD JUMPDEST PUSH1 0x40 MLOAD DUP1 SWAP2 SUB SWAP1 RETURN JUMPDEST PUSH1 0x0 DUP1 SLOAD PUSH1 0x40 DUP1 MLOAD DUP4 DUP2 MSTORE PUSH1 0x20 DUP2 ADD SWAP3 SWAP1 SWAP3 MSTORE TIMESTAMP SWAP1 DUP3 ADD DUP2 SWAP1 MSTORE PUSH1 0x60 DUP3 ADD MSTORE PUSH1 0x80 DUP2 ADD SWAP2 SWAP1 SWAP2 MSTORE PUSH1 0xA0 ADD PUSH1 0x64 JUMP JUMPDEST PUSH1 0x0 DUP2 SWAP1 SSTORE PUSH1 0x40 MLOAD DUP2 DUP2 MSTORE PUSH32 0x8E4E26EF193C8838546BDC7F69655BF260ACE719057E892055B21C089AAF42D2 SWAP1 PUSH1 0x20 ADD PUSH1 0x40 MLOAD DUP1 SWAP2 SUB SWAP1 LOG1 POP JUMP JUMPDEST PUSH1 0x0 PUSH1 0x20 DUP3 DUP5 SUB SLT ISZERO PUSH1 0xE7 JUMPI PUSH1 0x0 DUP1 REVERT JUMPDEST POP CALLDATALOAD SWAP2 SWAP1 POP JUMP INVALID LOG2 PUSH5 0x6970667358 0x22 SLT KECCAK256 SHR SWAP12 CODECOPY 0xB7 0xC4 0xE0 0xD5 CREATE 0x5D 0xC0 STATICCALL 0xC1 0xD8 SELFBALANCE 0xEB PUSH17 0xD69340E173FDEDA78CCF4F9F74D96B3864 PUSH20 0x6F6C634300081400330000000000000000000000 "},"methodIdentifiers":{"latestAnswer()":"50d25bcd","latestRoundData()":"feaf968c","setLatestAnswer(int256)":"04ea97b0"}}}}}