{"contracts/SupplierAgreement.sol":{"SupplierAgreement":{"abi":[{"inputs":[{"internalType":"address","name":"_oracle","type":"address"},{"internalType":"address","name":"_arbitrator","type":"address"},{"internalType":"address","name":"_oracleAddress","type":"address"},{"internalType":"address","name":"_tokenAddress","type":"address"}],"stateMutability":"nonpayable","type":"constructor"},{"anonymous":false,"inputs":[{"indexed":false,"internalType":"uint256","name":"quantity","type":"uint256"},{"indexed":false,"internalType":"uint256","name":"price","type":"uint256"},{"indexed":false,"internalType":"uint256","name":"deadline","type":"uint256"},{"indexed":false,"internalType":"string","name":"ipfsHash","type":"string"}],"name":"AgreementCreated","type":"event"},{"anonymous":false,"inputs":[{"indexed":true,"internalType":"enum SupplierAgreement.AgreementState","name":"newState","type":"uint8"}],"name":"AgreementStatusChanged","type":"event"},{"anonymous":false,"inputs":[{"indexed":false,"internalType":"bool","name":"success","type":"bool"}],"name":"DeliveryUpdated","type":"event"},{"anonymous":false,"inputs":[{"indexed":false,"internalType":"string","name":"decision","type":"string"}],"name":"DisputeResolved","type":"event"},{"anonymous":false,"inputs":[{"indexed":false,"internalType":"string","name":"eventType","type":"string"},{"indexed":false,"internalType":"string","name":"data","type":"string"}],"name":"ERPDataUpdate","type":"event"},{"anonymous":false,"inputs":[{"indexed":true,"internalType":"address","name":"supplier","type":"address"}],"name":"OrderDispatched","type":"event"},{"anonymous":false,"inputs":[{"indexed":true,"internalType":"address","name":"buyer","type":"address"},{"indexed":false,"internalType":"uint256","name":"amount","type":"uint256"}],"name":"PaymentConfirmed","type":"event"},{"anonymous":false,"inputs":[{"indexed":true,"internalType":"bytes32","name":"role","type":"bytes32"},{"indexed":true,"internalType":"bytes32","name":"previousAdminRole","type":"bytes32"},{"indexed":true,"internalType":"bytes32","name":"newAdminRole","type":"bytes32"}],"name":"RoleAdminChanged","type":"event"},{"anonymous":false,"inputs":[{"indexed":true,"internalType":"bytes32","name":"role","type":"bytes32"},{"indexed":true,"internalType":"address","name":"account","type":"address"},{"indexed":true,"internalType":"address","name":"sender","type":"address"}],"name":"RoleGranted","type":"event"},{"anonymous":false,"inputs":[{"indexed":true,"internalType":"bytes32","name":"role","type":"bytes32"},{"indexed":true,"internalType":"address","name":"account","type":"address"},{"indexed":true,"internalType":"address","name":"sender","type":"address"}],"name":"RoleRevoked","type":"event"},{"anonymous":false,"inputs":[{"indexed":true,"internalType":"address","name":"supplier","type":"address"},{"indexed":false,"internalType":"uint8","name":"rating","type":"uint8"}],"name":"SupplierRated","type":"event"},{"anonymous":false,"inputs":[{"indexed":true,"internalType":"address","name":"supplier","type":"address"},{"indexed":false,"internalType":"uint256","name":"carbonFootprint","type":"uint256"},{"indexed":false,"internalType":"uint256","name":"energyConsumption","type":"uint256"},{"indexed":false,"internalType":"uint8","name":"recycledMaterialUsage","type":"uint8"}],"name":"SustainabilityMetricsRecorded","type":"event"},{"anonymous":false,"inputs":[{"indexed":true,"internalType":"address","name":"supplier","type":"address"},{"indexed":false,"internalType":"bytes","name":"zkProof","type":"bytes"}],"name":"ZKProofSubmitted","type":"event"},{"inputs":[],"name":"ARBITRATOR_ROLE","outputs":[{"internalType":"bytes32","name":"","type":"bytes32"}],"stateMutability":"view","type":"function"},{"inputs":[],"name":"DEFAULT_ADMIN_ROLE","outputs":[{"internalType":"bytes32","name":"","type":"bytes32"}],"stateMutability":"view","type":"function"},{"inputs":[],"name":"ORACLE_ROLE","outputs":[{"internalType":"bytes32","name":"","type":"bytes32"}],"stateMutability":"view","type":"function"},{"inputs":[],"name":"acceptAgreement","outputs":[],"stateMutability":"nonpayable","type":"function"},{"inputs":[],"name":"agreement","outputs":[{"internalType":"uint256","name":"quantity","type":"uint256"},{"internalType":"uint256","name":"price","type":"uint256"},{"internalType":"uint256","name":"deadline","type":"uint256"},{"internalType":"string","name":"ipfsHash","type":"string"},{"internalType":"enum SupplierAgreement.AgreementState","name":"state","type":"uint8"}],"stateMutability":"view","type":"function"},{"inputs":[],"name":"buyer","outputs":[{"internalType":"address","name":"","type":"address"}],"stateMutability":"view","type":"function"},{"inputs":[{"internalType":"uint256","name":"_paymentAmount","type":"uint256"}],"name":"confirmPayment","outputs":[],"stateMutability":"nonpayable","type":"function"},{"inputs":[{"internalType":"uint256","name":"_quantity","type":"uint256"},{"internalType":"uint256","name":"_price","type":"uint256"},{"internalType":"uint256","name":"_deadline","type":"uint256"},{"internalType":"string","name":"_ipfsHash","type":"string"}],"name":"createAgreement","outputs":[],"stateMutability":"nonpayable","type":"function"},{"inputs":[],"name":"dispatchOrder","outputs":[],"stateMutability":"nonpayable","type":"function"},{"inputs":[],"name":"escrowAmount","outputs":[{"internalType":"uint256","name":"","type":"uint256"}],"stateMutability":"view","type":"function"},{"inputs":[],"name":"getOracleData","outputs":[{"internalType":"int256","name":"answer","type":"int256"}],"stateMutability":"view","type":"function"},{"inputs":[{"internalType":"bytes32","name":"role","type":"bytes32"}],"name":"getRoleAdmin","outputs":[{"internalType":"bytes32","name":"","type":"bytes32"}],"stateMutability":"view","type":"function"},{"inputs":[{"internalType":"bytes32","name":"role","type":"bytes32"},{"internalType":"address","name":"account","type":"address"}],"name":"grantRole","outputs":[],"stateMutability":"nonpayable","type":"function"},{"inputs":[{"internalType":"bytes32","name":"role","type":"bytes32"},{"internalType":"address","name":"account","type":"address"}],"name":"hasRole","outputs":[{"internalType":"bool","name":"","type":"bool"}],"stateMutability":"view","type":"function"},{"inputs":[],"name":"oracleAddress","outputs":[{"internalType":"address","name":"","type":"address"}],"stateMutability":"view","type":"function"},{"inputs":[],"name":"paymentToken","outputs":[{"internalType":"contract IERC20","name":"","type":"address"}],"stateMutability":"view","type":"function"},{"inputs":[{"internalType":"address","name":"_supplier","type":"address"},{"internalType":"uint8","name":"_rating","type":"uint8"}],"name":"rateSupplier","outputs":[],"stateMutability":"nonpayable","type":"function"},{"inputs":[{"internalType":"bytes32","name":"role","type":"bytes32"},{"internalType":"address","name":"account","type":"address"}],"name":"renounceRole","outputs":[],"stateMutability":"nonpayable","type":"function"},{"inputs":[{"internalType":"string","name":"_decision","type":"string"}],"name":"resolveDispute","outputs":[],"stateMutability":"nonpayable","type":"function"},{"inputs":[{"internalType":"bytes32","name":"role","type":"bytes32"},{"internalType":"address","name":"account","type":"address"}],"name":"revokeRole","outputs":[],"stateMutability":"nonpayable","type":"function"},{"inputs":[],"name":"startAgreement","outputs":[],"stateMutability":"nonpayable","type":"function"},{"inputs":[{"internalType":"bytes","name":"zkProof","type":"bytes"}],"name":"submitZKProof","outputs":[],"stateMutability":"nonpayable","type":"function"},{"inputs":[{"internalType":"uint256","name":"","type":"uint256"}],"name":"supplierList","outputs":[{"internalType":"address","name":"","type":"address"}],"stateMutability":"view","type":"function"},{"inputs":[{"internalType":"address","name":"","type":"address"}],"name":"suppliers","outputs":[{"internalType":"bool","name":"accepted","type":"bool"},{"internalType":"uint8","name":"rating","type":"uint8"}],"stateMutability":"view","type":"function"},{"inputs":[{"internalType":"bytes4","name":"interfaceId","type":"bytes4"}],"name":"supportsInterface","outputs":[{"internalType":"bool","name":"","type":"bool"}],"stateMutability":"view","type":"function"},{"inputs":[{"internalType":"bool","name":"_deliverySuccessful","type":"bool"}],"name":"updateDeliveryStatus","outputs":[],"stateMutability":"nonpayable","type":"function"}],"evm":{"bytecode":{"linkReferences":{},"object":"60806040523480156200001157600080fd5b506040516200271c3803806200271c83398101604081905262000034916200019b565b6001805562000045600033620000dd565b620000717f68e79a7bf1e0bc45d0a330c573bc367f9cf464fd326078812f301165fbda4ef185620000dd565b6200009d7f16ceee8289685dd2a02b9c8ae81d2df373176ce53519e6284e2a2950d6546ffa84620000dd565b600780546001600160a01b03199081163317909155600a80546001600160a01b03948516908316179055600b805492909316911617905550620001f89050565b6000828152602081815260408083206001600160a01b038516845290915290205460ff166200017a576000828152602081815260408083206001600160a01b03851684529091529020805460ff19166001179055620001393390565b6001600160a01b0316816001600160a01b0316837f2f8788117e7eff1d82e926ec794901d17c78024a50270940304540a733656f0d60405160405180910390a45b5050565b80516001600160a01b03811681146200019657600080fd5b919050565b60008060008060808587031215620001b257600080fd5b620001bd856200017e565b9350620001cd602086016200017e565b9250620001dd604086016200017e565b9150620001ed606086016200017e565b905092959194509250565b61251480620002086000396000f3fe608060405234801561001057600080fd5b506004361061018e5760003560e01c80637db3a946116100de578063a58f665011610097578063d547741f11610071578063d547741f146103b7578063dac96d4a146103ca578063eebf2785146103d2578063f0f5a5b1146103e557600080fd5b8063a58f665014610389578063a89ae4ba1461039c578063bc61c920146103af57600080fd5b80637db3a94614610308578063876ca09f146103215780638f2238ba1461033457806391d14854146103475780639cea07871461035a578063a217fddf1461038157600080fd5b806336568abe1161014b5780636481c5e6116101255780636481c5e6146102c757806366d6d4d2146102cf5780637026979e146102e25780637150d8ae146102f557600080fd5b806336568abe1461029857806345ee9796146102ab57806347a7846f146102be57600080fd5b806301ffc9a71461019357806307e2cea5146101bb57806316dc15fe146101f0578063248a9ca3146102355780632f2ff15d146102585780633013ce291461026d575b600080fd5b6101a66101a1366004611d30565b6103ed565b60405190151581526020015b60405180910390f35b6101e27f68e79a7bf1e0bc45d0a330c573bc367f9cf464fd326078812f301165fbda4ef181565b6040519081526020016101b2565b61021c6101fe366004611d76565b60086020526000908152604090205460ff8082169161010090041682565b60408051921515835260ff9091166020830152016101b2565b6101e2610243366004611d91565b60009081526020819052604090206001015490565b61026b610266366004611daa565b610424565b005b600b54610280906001600160a01b031681565b6040516001600160a01b0390911681526020016101b2565b61026b6102a6366004611daa565b61044e565b61026b6102b9366004611de4565b6104d1565b6101e2600c5481565b6101e2610735565b61026b6102dd366004611e4a565b6107ba565b61026b6102f0366004611e8c565b6108cd565b600754610280906001600160a01b031681565b610310610b4a565b6040516101b2959493929190611f53565b61026b61032f366004611d91565b610bf4565b61026b610342366004611e4a565b610ded565b6101a6610355366004611daa565b61105b565b6101e27f16ceee8289685dd2a02b9c8ae81d2df373176ce53519e6284e2a2950d6546ffa81565b6101e2600081565b610280610397366004611d91565b611084565b600a54610280906001600160a01b031681565b61026b6110ae565b61026b6103c5366004611daa565b61122e565b61026b611253565b61026b6103e0366004611fa8565b61133a565b61026b6114e6565b60006001600160e01b03198216637965db0b60e01b148061041e57506301ffc9a760e01b6001600160e01b03198316145b92915050565b60008281526020819052604090206001015461043f816115c2565b61044983836115cc565b505050565b6001600160a01b03811633146104c35760405162461bcd60e51b815260206004820152602f60248201527f416363657373436f6e74726f6c3a2063616e206f6e6c792072656e6f756e636560448201526e103937b632b9903337b91039b2b63360891b60648201526084015b60405180910390fd5b6104cd8282611650565b5050565b6104d96116b5565b7f68e79a7bf1e0bc45d0a330c573bc367f9cf464fd326078812f301165fbda4ef1610503816115c2565b600460065460ff16600781111561051c5761051c611f3d565b146105695760405162461bcd60e51b815260206004820181905260248201527fc38974617420696e76616c69646520706f7572206c61206c6976726169736f6e60448201526064016104ba565b60405182151581527f0677dd7453fc7f58c3083fbed22128d2ae8f653216f78f37a5d85f9278376c779060200160405180910390a18115610694576006805460ff19166005179055600954156105f5576105f560096000815481106105d0576105d0611fe5565b600091825260209091200154600c54600b546001600160a01b0390811692169061170e565b6000600c5560056040516000805160206124bf83398151915290600090a260008051602061249f833981519152604051610687906040808252600f908201526e44656c69766572795375636365737360881b6060820152608060208201819052601e908201527f466f6e6473206c6962c3a972c3a97320617520666f75726e697373657572000060a082015260c00190565b60405180910390a1610728565b6006805460ff1916811781556040516000805160206124bf83398151915290600090a260008051602061249f83398151915260405161071f906040808252600e908201526d11195b1a5d995c9e51985a5b195960921b606082015260806020820181905260129082015271436f6d6d616e646520656e206c697469676560701b60a082015260c00190565b60405180910390a15b5061073260018055565b50565b600080600a60009054906101000a90046001600160a01b03166001600160a01b031663feaf968c6040518163ffffffff1660e01b815260040160a060405180830381865afa15801561078b573d6000803e3d6000fd5b505050506040513d601f19601f820116820180604052508101906107af9190612015565b509195945050505050565b3360009081526008602052604090205460ff166108135760405162461bcd60e51b8152602060048201526017602482015276466f75726e697373657572206e6f6e20656e676167c3a960481b60448201526064016104ba565b336001600160a01b03167fc95c333e464b93db7874a4fdebcfba2f7e9ef6b6074730ecb0feb123c8ea59be838360405161084e92919061208e565b60405180910390a260008051602061249f8339815191526040516108c19060408082526010908201526f1692d41c9bdbd994dd589b5a5d1d195960821b6060820152608060208201819052601390820152721692d4081c1c9bdbd9881cdd589b5a5d1d1959606a1b60a082015260c00190565b60405180910390a15050565b6007546001600160a01b031633146109335760405162461bcd60e51b815260206004820152602360248201527f5365756c206c652062757965722070657574206372c3a9657220756e206163636044820152621bdc9960ea1b60648201526084016104ba565b600060065460ff16600781111561094c5761094c611f3d565b148061096e5750600760065460ff16600781111561096c5761096c611f3d565b145b6109ba5760405162461bcd60e51b815260206004820181905260248201527fc38974617420696e76616c69646520706f7572206c61206372c3a96174696f6e60448201526064016104ba565b428311610a155760405162461bcd60e51b8152602060048201526024808201527f4c6120646561646c696e6520646f697420c3aa7472652064616e73206c6520666044820152633aba3ab960e11b60648201526084016104ba565b6040518060a0016040528086815260200185815260200184815260200183838080601f0160208091040260200160405190810160405280939291908181526020018383808284376000920182905250938552505050602091820152815160029081559082015160035560408201516004556060820151600590610a989082612140565b50608082015160048201805460ff19166001836007811115610abc57610abc611f3d565b02179055509050507f333f645e01b5704c88baab20e34c2c6857630dfbf5b9362d131210de2ac02e118585858585604051610afb959493929190612200565b60405180910390a160006040516000805160206124bf83398151915290600090a260008051602061249f8339815191528282604051610b3b929190612226565b60405180910390a15050505050565b600280546003546004546005805493949293919291610b68906120b8565b80601f0160208091040260200160405190810160405280929190818152602001828054610b94906120b8565b8015610be15780601f10610bb657610100808354040283529160200191610be1565b820191906000526020600020905b815481529060010190602001808311610bc457829003601f168201915b5050506004909301549192505060ff1685565b610bfc6116b5565b6007546001600160a01b03163314610c675760405162461bcd60e51b815260206004820152602860248201527f5365756c206c65206275796572207065757420636f6e6669726d6572206c65206044820152671c185a595b595b9d60c21b60648201526084016104ba565b600060065460ff166007811115610c8057610c80611f3d565b14610ce15760405162461bcd60e51b815260206004820152602b60248201527f4c276163636f726420646f697420c3aa74726520656e20c3a97461742064652060448201526a2732b3b7ba34b0ba34b7b760a91b60648201526084016104ba565b600254600354600091610cf391612277565b9050808214610d505760405162461bcd60e51b815260206004820152602360248201527f4d6f6e74616e7420696e737566666973616e7420706f7572206ce280996163636044820152621bdc9960ea1b60648201526084016104ba565b600b54610d68906001600160a01b0316333085611771565b600c8290556006805460ff1916600117905560405182815233907f9250be6d331c7b11672fc0207421bfc1631fb0ddfa5479299c034ac0ec06583c9060200160405180910390a260016040516000805160206124bf83398151915290600090a260008051602061249f833981519152610de0836117af565b60405161071f919061228e565b610df56116b5565b7f16ceee8289685dd2a02b9c8ae81d2df373176ce53519e6284e2a2950d6546ffa610e1f816115c2565b6006805460ff166007811115610e3757610e37611f3d565b14610e995760405162461bcd60e51b815260206004820152602c60248201527fc38974617420696e76616c69646520706f7572206c612072c3a9736f6c75746960448201526b6f6e206475206c697469676560a01b60648201526084016104ba565b604080518082018252600b81526a2932b33ab732213abcb2b960a91b602090910152517f99470f51a0d3f4ce2d1e7b245a3f441c80cd6340caeb62b2f0f42fc3f1acf78290610eeb90859085906122c8565b604051809103902003610f31576006805460ff1916600790811790915554600c54600b54610f27926001600160a01b039182169291169061170e565b6000600c55610fc3565b604080518082018252600c81526b52656c6561736546756e647360a01b602090910152517f7f9d99b008e6e7f408f271e747de0380e73bdd74a4a60f54fe0dfdbe7e3f3d0e90610f8490859085906122c8565b604051809103902003610fc3576006805460ff1916600517905560095415610fbd57610fbd60096000815481106105d0576105d0611fe5565b6000600c555b7f6478282e06f428e8cc4a5a3f8e08080cef19dcc8ed01914a202782c93d1ad51e8383604051610ff492919061208e565b60405180910390a160065460ff16600781111561101357611013611f3d565b6040516000805160206124bf83398151915290600090a260008051602061249f83398151915283836040516110499291906122d8565b60405180910390a1506104cd60018055565b6000918252602082815260408084206001600160a01b0393909316845291905290205460ff1690565b6009818154811061109457600080fd5b6000918252602090912001546001600160a01b0316905081565b3360009081526008602052604090205460ff166111065760405162461bcd60e51b8152602060048201526016602482015275466f75726e697373657572206e6f6e2076616c69646560501b60448201526064016104ba565b600260065460ff16600781111561111f5761111f611f3d565b1461116c5760405162461bcd60e51b815260206004820152601b60248201527fc38974617420696e76616c69646520706f7572206c27656e766f69000000000060448201526064016104ba565b6006805460ff1916600417905560405133907fa766451b403b77e89b1c7b2104774ebf06c2448ece93c98b15c0680b6e40b54d90600090a260046040516000805160206124bf83398151915290600090a260008051602061249f833981519152604051611224906040808252600f908201526e13dc99195c911a5cdc185d18da1959608a1b60608201526080602082018190526010908201526f13dc99195c88191a5cdc185d18da195960821b60a082015260c00190565b60405180910390a1565b600082815260208190526040902060010154611249816115c2565b6104498383611650565b600060065460ff16600781111561126c5761126c611f3d565b146112c45760405162461bcd60e51b815260206004820152602260248201527f4163636f7264206e6f6e20656e20c3a9746174206465204e65676f746961746960448201526137b760f11b60648201526084016104ba565b3360009081526008602052604090205460ff1661133857336000818152600860205260408120805460ff191660019081179091556009805491820181559091527f6e1540171b6c0c960b71a7020d9f60077f6af931a8bbf590da0223dacf75c7af0180546001600160a01b03191690911790555b565b6007546001600160a01b031633146113945760405162461bcd60e51b815260206004820152601860248201527f5365756c206c652062757965722070657574206e6f746572000000000000000060448201526064016104ba565b60018160ff16101580156113ac575060058160ff1611155b6113f85760405162461bcd60e51b815260206004820152601f60248201527f4c61206e6f746520646f697420c3aa74726520656e747265203120657420350060448201526064016104ba565b6001600160a01b03821660009081526008602052604090205460ff1661145a5760405162461bcd60e51b8152602060048201526017602482015276466f75726e697373657572206e6f6e20656e676167c3a960481b60448201526064016104ba565b6001600160a01b038216600081815260086020908152604091829020805461ff00191661010060ff87169081029190911790915591519182527f0d54624fc9751940a1a3dc837603098fe07d6465f0a1ecc4da25c37461b146e4910160405180910390a260008051602061249f8339815191526114d98260ff166117af565b6040516108c19190612312565b6004544211156115385760405162461bcd60e51b815260206004820152601a60248201527f4c6120646561646c696e65206573742064c3a970617373c3a96500000000000060448201526064016104ba565b6006805460ff191660029081179091556040516000805160206124bf83398151915290600090a260008051602061249f833981519152604051611224906040808252600e908201526d14dd185c9d1059dc99595b595b9d60921b6060820152608060208201819052600d908201526c13dc99195c881cdd185c9d1959609a1b60a082015260c00190565b61073281336118c0565b6115d6828261105b565b6104cd576000828152602081815260408083206001600160a01b03851684529091529020805460ff1916600117905561160c3390565b6001600160a01b0316816001600160a01b0316837f2f8788117e7eff1d82e926ec794901d17c78024a50270940304540a733656f0d60405160405180910390a45050565b61165a828261105b565b156104cd576000828152602081815260408083206001600160a01b0385168085529252808320805460ff1916905551339285917ff6391f5c32d9c69d2a47ea670b442974b53935d1edc7fd64eb21e047a839171b9190a45050565b6002600154036117075760405162461bcd60e51b815260206004820152601f60248201527f5265656e7472616e637947756172643a207265656e7472616e742063616c6c0060448201526064016104ba565b6002600155565b6040516001600160a01b03831660248201526044810182905261044990849063a9059cbb60e01b906064015b60408051601f198184030181529190526020810180516001600160e01b03166001600160e01b031990931692909217909152611919565b6040516001600160a01b03808516602483015283166044820152606481018290526117a99085906323b872dd60e01b9060840161173a565b50505050565b6060816000036117d65750506040805180820190915260018152600360fc1b602082015290565b8160005b811561180057806117ea81612349565b91506117f99050600a83612378565b91506117da565b60008167ffffffffffffffff81111561181b5761181b6120a2565b6040519080825280601f01601f191660200182016040528015611845576020820181803683370190505b509050815b85156118b75761185b60018261238c565b9050600061186a600a8861239f565b6118759060306123b3565b90508060f81b83838151811061188d5761188d611fe5565b60200101906001600160f81b031916908160001a9053506118af600a88612378565b96505061184a565b50949350505050565b6118ca828261105b565b6104cd576118d7816119eb565b6118e28360206119fd565b6040516020016118f39291906123c6565b60408051601f198184030181529082905262461bcd60e51b82526104ba9160040161243b565b600061196e826040518060400160405280602081526020017f5361666545524332303a206c6f772d6c6576656c2063616c6c206661696c6564815250856001600160a01b0316611ba09092919063ffffffff16565b805190915015610449578080602001905181019061198c919061244e565b6104495760405162461bcd60e51b815260206004820152602a60248201527f5361666545524332303a204552433230206f7065726174696f6e20646964206e6044820152691bdd081cdd58d8d9595960b21b60648201526084016104ba565b606061041e6001600160a01b03831660145b60606000611a0c836002612277565b611a179060026123b3565b67ffffffffffffffff811115611a2f57611a2f6120a2565b6040519080825280601f01601f191660200182016040528015611a59576020820181803683370190505b509050600360fc1b81600081518110611a7457611a74611fe5565b60200101906001600160f81b031916908160001a905350600f60fb1b81600181518110611aa357611aa3611fe5565b60200101906001600160f81b031916908160001a9053506000611ac7846002612277565b611ad29060016123b3565b90505b6001811115611b4a576f181899199a1a9b1b9c1cb0b131b232b360811b85600f1660108110611b0657611b06611fe5565b1a60f81b828281518110611b1c57611b1c611fe5565b60200101906001600160f81b031916908160001a90535060049490941c93611b438161246b565b9050611ad5565b508315611b995760405162461bcd60e51b815260206004820181905260248201527f537472696e67733a20686578206c656e67746820696e73756666696369656e7460448201526064016104ba565b9392505050565b6060611baf8484600085611bb7565b949350505050565b606082471015611c185760405162461bcd60e51b815260206004820152602660248201527f416464726573733a20696e73756666696369656e742062616c616e636520666f6044820152651c8818d85b1b60d21b60648201526084016104ba565b600080866001600160a01b03168587604051611c349190612482565b60006040518083038185875af1925050503d8060008114611c71576040519150601f19603f3d011682016040523d82523d6000602084013e611c76565b606091505b5091509150611c8787838387611c92565b979650505050505050565b60608315611d01578251600003611cfa576001600160a01b0385163b611cfa5760405162461bcd60e51b815260206004820152601d60248201527f416464726573733a2063616c6c20746f206e6f6e2d636f6e747261637400000060448201526064016104ba565b5081611baf565b611baf8383815115611d165781518083602001fd5b8060405162461bcd60e51b81526004016104ba919061243b565b600060208284031215611d4257600080fd5b81356001600160e01b031981168114611b9957600080fd5b80356001600160a01b0381168114611d7157600080fd5b919050565b600060208284031215611d8857600080fd5b611b9982611d5a565b600060208284031215611da357600080fd5b5035919050565b60008060408385031215611dbd57600080fd5b82359150611dcd60208401611d5a565b90509250929050565b801515811461073257600080fd5b600060208284031215611df657600080fd5b8135611b9981611dd6565b60008083601f840112611e1357600080fd5b50813567ffffffffffffffff811115611e2b57600080fd5b602083019150836020828501011115611e4357600080fd5b9250929050565b60008060208385031215611e5d57600080fd5b823567ffffffffffffffff811115611e7457600080fd5b611e8085828601611e01565b90969095509350505050565b600080600080600060808688031215611ea457600080fd5b853594506020860135935060408601359250606086013567ffffffffffffffff811115611ed057600080fd5b611edc88828901611e01565b969995985093965092949392505050565b60005b83811015611f08578181015183820152602001611ef0565b50506000910152565b60008151808452611f29816020860160208601611eed565b601f01601f19169290920160200192915050565b634e487b7160e01b600052602160045260246000fd5b85815284602082015283604082015260a060608201526000611f7860a0830185611f11565b905060088310611f9857634e487b7160e01b600052602160045260246000fd5b8260808301529695505050505050565b60008060408385031215611fbb57600080fd5b611fc483611d5a565b9150602083013560ff81168114611fda57600080fd5b809150509250929050565b634e487b7160e01b600052603260045260246000fd5b805169ffffffffffffffffffff81168114611d7157600080fd5b600080600080600060a0868803121561202d57600080fd5b61203686611ffb565b945060208601519350604086015192506060860151915061205960808701611ffb565b90509295509295909350565b81835281816020850137506000828201602090810191909152601f909101601f19169091010190565b602081526000611baf602083018486612065565b634e487b7160e01b600052604160045260246000fd5b600181811c908216806120cc57607f821691505b6020821081036120ec57634e487b7160e01b600052602260045260246000fd5b50919050565b601f82111561044957600081815260208120601f850160051c810160208610156121195750805b601f850160051c820191505b8181101561213857828155600101612125565b505050505050565b815167ffffffffffffffff81111561215a5761215a6120a2565b61216e8161216884546120b8565b846120f2565b602080601f8311600181146121a3576000841561218b5750858301515b600019600386901b1c1916600185901b178555612138565b600085815260208120601f198616915b828110156121d2578886015182559484019460019091019084016121b3565b50858210156121f05787850151600019600388901b60f8161c191681555b5050505050600190811b01905550565b858152846020820152836040820152608060608201526000611c87608083018486612065565b60408152601060408201526f1059dc99595b595b9d10dc99585d195960821b6060820152608060208201526000611baf608083018486612065565b634e487b7160e01b600052601160045260246000fd5b808202811582820484141761041e5761041e612261565b60408152601060408201526f14185e5b595b9d10dbdb999a5c9b595960821b6060820152608060208201526000611b996080830184611f11565b8183823760009101908152919050565b60408152600f60408201526e111a5cdc1d5d1954995cdbdb1d9959608a1b6060820152608060208201526000611baf608083018486612065565b60408152600d60408201526c14dd5c1c1b1a595c94985d1959609a1b6060820152608060208201526000611b996080830184611f11565b60006001820161235b5761235b612261565b5060010190565b634e487b7160e01b600052601260045260246000fd5b60008261238757612387612362565b500490565b8181038181111561041e5761041e612261565b6000826123ae576123ae612362565b500690565b8082018082111561041e5761041e612261565b7f416363657373436f6e74726f6c3a206163636f756e74200000000000000000008152600083516123fe816017850160208801611eed565b7001034b99036b4b9b9b4b733903937b6329607d1b601791840191820152835161242f816028840160208801611eed565b01602801949350505050565b602081526000611b996020830184611f11565b60006020828403121561246057600080fd5b8151611b9981611dd6565b60008161247a5761247a612261565b506000190190565b60008251612494818460208701611eed565b919091019291505056febb36578214262f273c82f8bafa80a05abffa06964288abc4a6179a948f98007e99644e2a282614041fb71faaa77ebcbaafc5eb939a38b7e1b52613b2dff6f425a2646970667358221220dc206f26463beff3ace649fce332939b800f1d48105537faa2134b9608f15bf964736f6c63430008140033","opcodes":"PUSH1 0x80 PUSH1 0x40 MSTORE CALLVALUE DUP1 ISZERO PUSH3 0x11 JUMPI PUSH1 0x0 DUP1 REVERT JUMPDEST POP PUSH1 0x40 MLOAD PUSH3 0x271C CODESIZE SUB DUP1 PUSH3 0x271C DUP4 CODECOPY DUP2 ADD PUSH1 0x40 DUP2 SWAP1 MSTORE PUSH3 0x34 SWAP2 PUSH3 0x19B JUMP JUMPDEST PUSH1 0x1 DUP1 SSTORE PUSH3 0x45 PUSH1 0x0 CALLER PUSH3 0xDD JUMP JUMPDEST PUSH3 0x71 PUSH32 0x68E79A7BF1E0BC45D0A330C573BC367F9CF464FD326078812F301165FBDA4EF1 DUP6 PUSH3 0xDD JUMP JUMPDEST PUSH3 0x9D PUSH32 0x16CEEE8289685DD2A02B9C8AE81D2DF373176CE53519E6284E2A2950D6546FFA DUP5 PUSH3 0xDD JUMP JUMPDEST PUSH1 0x7 DUP1 SLOAD PUSH1 0x1 PUSH1 0x1 PUSH1 0xA0 SHL SUB NOT SWAP1 DUP2 AND CALLER OR SWAP1 SWAP2 SSTORE PUSH1 0xA DUP1 SLOAD PUSH1 0x1 PUSH1 0x1 PUSH1 0xA0 SHL SUB SWAP5 DUP6 AND SWAP1 DUP4 AND OR SWAP1 SSTORE PUSH1 0xB DUP1 SLOAD SWAP3 SWAP1 SWAP4 AND SWAP2 AND OR SWAP1 SSTORE POP PUSH3 0x1F8 SWAP1 POP JUMP JUMPDEST PUSH1 0x0 DUP3 DUP2 MSTORE PUSH1 0x20 DUP2 DUP2 MSTORE PUSH1 0x40 DUP1 DUP4 KECCAK256 PUSH1 0x1 PUSH1 0x1 PUSH1 0xA0 SHL SUB DUP6 AND DUP5 MSTORE SWAP1 SWAP2 MSTORE SWAP1 KECCAK256 SLOAD PUSH1 0xFF AND PUSH3 0x17A JUMPI PUSH1 0x0 DUP3 DUP2 MSTORE PUSH1 0x20 DUP2 DUP2 MSTORE PUSH1 0x40 DUP1 DUP4 KECCAK256 PUSH1 0x1 PUSH1 0x1 PUSH1 0xA0 SHL SUB DUP6 AND DUP5 MSTORE SWAP1 SWAP2 MSTORE SWAP1 KECCAK256 DUP1 SLOAD PUSH1 0xFF NOT AND PUSH1 0x1 OR SWAP1 SSTORE PUSH3 0x139 CALLER SWAP1 JUMP JUMPDEST PUSH1 0x1 PUSH1 0x1 PUSH1 0xA0 SHL SUB AND DUP2 PUSH1 0x1 PUSH1 0x1 PUSH1 0xA0 SHL SUB AND DUP4 PUSH32 0x2F8788117E7EFF1D82E926EC794901D17C78024A50270940304540A733656F0D PUSH1 0x40 MLOAD PUSH1 0x40 MLOAD DUP1 SWAP2 SUB SWAP1 LOG4 JUMPDEST POP POP JUMP JUMPDEST DUP1 MLOAD PUSH1 0x1 PUSH1 0x1 PUSH1 0xA0 SHL SUB DUP2 AND DUP2 EQ PUSH3 0x196 JUMPI PUSH1 0x0 DUP1 REVERT JUMPDEST SWAP2 SWAP1 POP JUMP JUMPDEST PUSH1 0x0 DUP1 PUSH1 0x0 DUP1 PUSH1 0x80 DUP6 DUP8 SUB SLT ISZERO PUSH3 0x1B2 JUMPI PUSH1 0x0 DUP1 REVERT JUMPDEST PUSH3 0x1BD DUP6 PUSH3 0x17E JUMP JUMPDEST SWAP4 POP PUSH3 0x1CD PUSH1 0x20 DUP7 ADD PUSH3 0x17E JUMP JUMPDEST SWAP3 POP PUSH3 0x1DD PUSH1 0x40 DUP7 ADD PUSH3 0x17E JUMP JUMPDEST SWAP2 POP PUSH3 0x1ED PUSH1 0x60 DUP7 ADD PUSH3 0x17E JUMP JUMPDEST SWAP1 POP SWAP3 SWAP6 SWAP2 SWAP5 POP SWAP3 POP JUMP JUMPDEST PUSH2 0x2514 DUP1 PUSH3 0x208 PUSH1 0x0 CODECOPY PUSH1 0x0 RETURN INVALID PUSH1 0x80 PUSH1 0x40 MSTORE CALLVALUE DUP1 ISZERO PUSH2 0x10 JUMPI PUSH1 0x0 DUP1 REVERT JUMPDEST POP PUSH1 0x4 CALLDATASIZE LT PUSH2 0x18E JUMPI PUSH1 0x0 CALLDATALOAD PUSH1 0xE0 SHR DUP1 PUSH4 0x7DB3A946 GT PUSH2 0xDE JUMPI DUP1 PUSH4 0xA58F6650 GT PUSH2 0x97 JUMPI DUP1 PUSH4 0xD547741F GT PUSH2 0x71 JUMPI DUP1 PUSH4 0xD547741F EQ PUSH2 0x3B7 JUMPI DUP1 PUSH4 0xDAC96D4A EQ PUSH2 0x3CA JUMPI DUP1 PUSH4 0xEEBF2785 EQ PUSH2 0x3D2 JUMPI DUP1 PUSH4 0xF0F5A5B1 EQ PUSH2 0x3E5 JUMPI PUSH1 0x0 DUP1 REVERT JUMPDEST DUP1 PUSH4 0xA58F6650 EQ PUSH2 0x389 JUMPI DUP1 PUSH4 0xA89AE4BA EQ PUSH2 0x39C JUMPI DUP1 PUSH4 0xBC61C920 EQ PUSH2 0x3AF JUMPI PUSH1 0x0 DUP1 REVERT JUMPDEST DUP1 PUSH4 0x7DB3A946 EQ PUSH2 0x308 JUMPI DUP1 PUSH4 0x876CA09F EQ PUSH2 0x321 JUMPI DUP1 PUSH4 0x8F2238BA EQ PUSH2 0x334 JUMPI DUP1 PUSH4 0x91D14854 EQ PUSH2 0x347 JUMPI DUP1 PUSH4 0x9CEA0787 EQ PUSH2 0x35A JUMPI DUP1 PUSH4 0xA217FDDF EQ PUSH2 0x381 JUMPI PUSH1 0x0 DUP1 REVERT JUMPDEST DUP1 PUSH4 0x36568ABE GT PUSH2 0x14B JUMPI DUP1 PUSH4 0x6481C5E6 GT PUSH2 0x125 JUMPI DUP1 PUSH4 0x6481C5E6 EQ PUSH2 0x2C7 JUMPI DUP1 PUSH4 0x66D6D4D2 EQ PUSH2 0x2CF JUMPI DUP1 PUSH4 0x7026979E EQ PUSH2 0x2E2 JUMPI DUP1 PUSH4 0x7150D8AE EQ PUSH2 0x2F5 JUMPI PUSH1 0x0 DUP1 REVERT JUMPDEST DUP1 PUSH4 0x36568ABE EQ PUSH2 0x298 JUMPI DUP1 PUSH4 0x45EE9796 EQ PUSH2 0x2AB JUMPI DUP1 PUSH4 0x47A7846F EQ PUSH2 0x2BE JUMPI PUSH1 0x0 DUP1 REVERT JUMPDEST DUP1 PUSH4 0x1FFC9A7 EQ PUSH2 0x193 JUMPI DUP1 PUSH4 0x7E2CEA5 EQ PUSH2 0x1BB JUMPI DUP1 PUSH4 0x16DC15FE EQ PUSH2 0x1F0 JUMPI DUP1 PUSH4 0x248A9CA3 EQ PUSH2 0x235 JUMPI DUP1 PUSH4 0x2F2FF15D EQ PUSH2 0x258 JUMPI DUP1 PUSH4 0x3013CE29 EQ PUSH2 0x26D JUMPI JUMPDEST PUSH1 0x0 DUP1 REVERT JUMPDEST PUSH2 0x1A6 PUSH2 0x1A1 CALLDATASIZE PUSH1 0x4 PUSH2 0x1D30 JUMP JUMPDEST PUSH2 0x3ED JUMP JUMPDEST PUSH1 0x40 MLOAD SWAP1 ISZERO ISZERO DUP2 MSTORE PUSH1 0x20 ADD JUMPDEST PUSH1 0x40 MLOAD DUP1 SWAP2 SUB SWAP1 RETURN JUMPDEST PUSH2 0x1E2 PUSH32 0x68E79A7BF1E0BC45D0A330C573BC367F9CF464FD326078812F301165FBDA4EF1 DUP2 JUMP JUMPDEST PUSH1 0x40 MLOAD SWAP1 DUP2 MSTORE PUSH1 0x20 ADD PUSH2 0x1B2 JUMP JUMPDEST PUSH2 0x21C PUSH2 0x1FE CALLDATASIZE PUSH1 0x4 PUSH2 0x1D76 JUMP JUMPDEST PUSH1 0x8 PUSH1 0x20 MSTORE PUSH1 0x0 SWAP1 DUP2 MSTORE PUSH1 0x40 SWAP1 KECCAK256 SLOAD PUSH1 0xFF DUP1 DUP3 AND SWAP2 PUSH2 0x100 SWAP1 DIV AND DUP3 JUMP JUMPDEST PUSH1 0x40 DUP1 MLOAD SWAP3 ISZERO ISZERO DUP4 MSTORE PUSH1 0xFF SWAP1 SWAP2 AND PUSH1 0x20 DUP4 ADD MSTORE ADD PUSH2 0x1B2 JUMP JUMPDEST PUSH2 0x1E2 PUSH2 0x243 CALLDATASIZE PUSH1 0x4 PUSH2 0x1D91 JUMP JUMPDEST PUSH1 0x0 SWAP1 DUP2 MSTORE PUSH1 0x20 DUP2 SWAP1 MSTORE PUSH1 0x40 SWAP1 KECCAK256 PUSH1 0x1 ADD SLOAD SWAP1 JUMP JUMPDEST PUSH2 0x26B PUSH2 0x266 CALLDATASIZE PUSH1 0x4 PUSH2 0x1DAA JUMP JUMPDEST PUSH2 0x424 JUMP JUMPDEST STOP JUMPDEST PUSH1 0xB SLOAD PUSH2 0x280 SWAP1 PUSH1 0x1 PUSH1 0x1 PUSH1 0xA0 SHL SUB AND DUP2 JUMP JUMPDEST PUSH1 0x40 MLOAD PUSH1 0x1 PUSH1 0x1 PUSH1 0xA0 SHL SUB SWAP1 SWAP2 AND DUP2 MSTORE PUSH1 0x20 ADD PUSH2 0x1B2 JUMP JUMPDEST PUSH2 0x26B PUSH2 0x2A6 CALLDATASIZE PUSH1 0x4 PUSH2 0x1DAA JUMP JUMPDEST PUSH2 0x44E JUMP JUMPDEST PUSH2 0x26B PUSH2 0x2B9 CALLDATASIZE PUSH1 0x4 PUSH2 0x1DE4 JUMP JUMPDEST PUSH2 0x4D1 JUMP JUMPDEST PUSH2 0x1E2 PUSH1 0xC SLOAD DUP2 JUMP JUMPDEST PUSH2 0x1E2 PUSH2 0x735 JUMP JUMPDEST PUSH2 0x26B PUSH2 0x2DD CALLDATASIZE PUSH1 0x4 PUSH2 0x1E4A JUMP JUMPDEST PUSH2 0x7BA JUMP JUMPDEST PUSH2 0x26B PUSH2 0x2F0 CALLDATASIZE PUSH1 0x4 PUSH2 0x1E8C JUMP JUMPDEST PUSH2 0x8CD JUMP JUMPDEST PUSH1 0x7 SLOAD PUSH2 0x280 SWAP1 PUSH1 0x1 PUSH1 0x1 PUSH1 0xA0 SHL SUB AND DUP2 JUMP JUMPDEST PUSH2 0x310 PUSH2 0xB4A JUMP JUMPDEST PUSH1 0x40 MLOAD PUSH2 0x1B2 SWAP6 SWAP5 SWAP4 SWAP3 SWAP2 SWAP1 PUSH2 0x1F53 JUMP JUMPDEST PUSH2 0x26B PUSH2 0x32F CALLDATASIZE PUSH1 0x4 PUSH2 0x1D91 JUMP JUMPDEST PUSH2 0xBF4 JUMP JUMPDEST PUSH2 0x26B PUSH2 0x342 CALLDATASIZE PUSH1 0x4 PUSH2 0x1E4A JUMP JUMPDEST PUSH2 0xDED JUMP JUMPDEST PUSH2 0x1A6 PUSH2 0x355 CALLDATASIZE PUSH1 0x4 PUSH2 0x1DAA JUMP JUMPDEST PUSH2 0x105B JUMP JUMPDEST PUSH2 0x1E2 PUSH32 0x16CEEE8289685DD2A02B9C8AE81D2DF373176CE53519E6284E2A2950D6546FFA DUP2 JUMP JUMPDEST PUSH2 0x1E2 PUSH1 0x0 DUP2 JUMP JUMPDEST PUSH2 0x280 PUSH2 0x397 CALLDATASIZE PUSH1 0x4 PUSH2 0x1D91 JUMP JUMPDEST PUSH2 0x1084 JUMP JUMPDEST PUSH1 0xA SLOAD PUSH2 0x280 SWAP1 PUSH1 0x1 PUSH1 0x1 PUSH1 0xA0 SHL SUB AND DUP2 JUMP JUMPDEST PUSH2 0x26B PUSH2 0x10AE JUMP JUMPDEST PUSH2 0x26B PUSH2 0x3C5 CALLDATASIZE PUSH1 0x4 PUSH2 0x1DAA JUMP JUMPDEST PUSH2 0x122E JUMP JUMPDEST PUSH2 0x26B PUSH2 0x1253 JUMP JUMPDEST PUSH2 0x26B PUSH2 0x3E0 CALLDATASIZE PUSH1 0x4 PUSH2 0x1FA8 JUMP JUMPDEST PUSH2 0x133A JUMP JUMPDEST PUSH2 0x26B PUSH2 0x14E6 JUMP JUMPDEST PUSH1 0x0 PUSH1 0x1 PUSH1 0x1 PUSH1 0xE0 SHL SUB NOT DUP3 AND PUSH4 0x7965DB0B PUSH1 0xE0 SHL EQ DUP1 PUSH2 0x41E JUMPI POP PUSH4 0x1FFC9A7 PUSH1 0xE0 SHL PUSH1 0x1 PUSH1 0x1 PUSH1 0xE0 SHL SUB NOT DUP4 AND EQ JUMPDEST SWAP3 SWAP2 POP POP JUMP JUMPDEST PUSH1 0x0 DUP3 DUP2 MSTORE PUSH1 0x20 DUP2 SWAP1 MSTORE PUSH1 0x40 SWAP1 KECCAK256 PUSH1 0x1 ADD SLOAD PUSH2 0x43F DUP2 PUSH2 0x15C2 JUMP JUMPDEST PUSH2 0x449 DUP4 DUP4 PUSH2 0x15CC JUMP JUMPDEST POP POP POP JUMP JUMPDEST PUSH1 0x1 PUSH1 0x1 PUSH1 0xA0 SHL SUB DUP2 AND CALLER EQ PUSH2 0x4C3 JUMPI PUSH1 0x40 MLOAD PUSH3 0x461BCD PUSH1 0xE5 SHL DUP2 MSTORE PUSH1 0x20 PUSH1 0x4 DUP3 ADD MSTORE PUSH1 0x2F PUSH1 0x24 DUP3 ADD MSTORE PUSH32 0x416363657373436F6E74726F6C3A2063616E206F6E6C792072656E6F756E6365 PUSH1 0x44 DUP3 ADD MSTORE PUSH15 0x103937B632B9903337B91039B2B633 PUSH1 0x89 SHL PUSH1 0x64 DUP3 ADD MSTORE PUSH1 0x84 ADD JUMPDEST PUSH1 0x40 MLOAD DUP1 SWAP2 SUB SWAP1 REVERT JUMPDEST PUSH2 0x4CD DUP3 DUP3 PUSH2 0x1650 JUMP JUMPDEST POP POP JUMP JUMPDEST PUSH2 0x4D9 PUSH2 0x16B5 JUMP JUMPDEST PUSH32 0x68E79A7BF1E0BC45D0A330C573BC367F9CF464FD326078812F301165FBDA4EF1 PUSH2 0x503 DUP2 PUSH2 0x15C2 JUMP JUMPDEST PUSH1 0x4 PUSH1 0x6 SLOAD PUSH1 0xFF AND PUSH1 0x7 DUP2 GT ISZERO PUSH2 0x51C JUMPI PUSH2 0x51C PUSH2 0x1F3D JUMP JUMPDEST EQ PUSH2 0x569 JUMPI PUSH1 0x40 MLOAD PUSH3 0x461BCD PUSH1 0xE5 SHL DUP2 MSTORE PUSH1 0x20 PUSH1 0x4 DUP3 ADD DUP2 SWAP1 MSTORE PUSH1 0x24 DUP3 ADD MSTORE PUSH32 0xC38974617420696E76616C69646520706F7572206C61206C6976726169736F6E PUSH1 0x44 DUP3 ADD MSTORE PUSH1 0x64 ADD PUSH2 0x4BA JUMP JUMPDEST PUSH1 0x40 MLOAD DUP3 ISZERO ISZERO DUP2 MSTORE PUSH32 0x677DD7453FC7F58C3083FBED22128D2AE8F653216F78F37A5D85F9278376C77 SWAP1 PUSH1 0x20 ADD PUSH1 0x40 MLOAD DUP1 SWAP2 SUB SWAP1 LOG1 DUP2 ISZERO PUSH2 0x694 JUMPI PUSH1 0x6 DUP1 SLOAD PUSH1 0xFF NOT AND PUSH1 0x5 OR SWAP1 SSTORE PUSH1 0x9 SLOAD ISZERO PUSH2 0x5F5 JUMPI PUSH2 0x5F5 PUSH1 0x9 PUSH1 0x0 DUP2 SLOAD DUP2 LT PUSH2 0x5D0 JUMPI PUSH2 0x5D0 PUSH2 0x1FE5 JUMP JUMPDEST PUSH1 0x0 SWAP2 DUP3 MSTORE PUSH1 0x20 SWAP1 SWAP2 KECCAK256 ADD SLOAD PUSH1 0xC SLOAD PUSH1 0xB SLOAD PUSH1 0x1 PUSH1 0x1 PUSH1 0xA0 SHL SUB SWAP1 DUP2 AND SWAP3 AND SWAP1 PUSH2 0x170E JUMP JUMPDEST PUSH1 0x0 PUSH1 0xC SSTORE PUSH1 0x5 PUSH1 0x40 MLOAD PUSH1 0x0 DUP1 MLOAD PUSH1 0x20 PUSH2 0x24BF DUP4 CODECOPY DUP2 MLOAD SWAP2 MSTORE SWAP1 PUSH1 0x0 SWAP1 LOG2 PUSH1 0x0 DUP1 MLOAD PUSH1 0x20 PUSH2 0x249F DUP4 CODECOPY DUP2 MLOAD SWAP2 MSTORE PUSH1 0x40 MLOAD PUSH2 0x687 SWAP1 PUSH1 0x40 DUP1 DUP3 MSTORE PUSH1 0xF SWAP1 DUP3 ADD MSTORE PUSH15 0x44656C697665727953756363657373 PUSH1 0x88 SHL PUSH1 0x60 DUP3 ADD MSTORE PUSH1 0x80 PUSH1 0x20 DUP3 ADD DUP2 SWAP1 MSTORE PUSH1 0x1E SWAP1 DUP3 ADD MSTORE PUSH32 0x466F6E6473206C6962C3A972C3A97320617520666F75726E6973736575720000 PUSH1 0xA0 DUP3 ADD MSTORE PUSH1 0xC0 ADD SWAP1 JUMP JUMPDEST PUSH1 0x40 MLOAD DUP1 SWAP2 SUB SWAP1 LOG1 PUSH2 0x728 JUMP JUMPDEST PUSH1 0x6 DUP1 SLOAD PUSH1 0xFF NOT AND DUP2 OR DUP2 SSTORE PUSH1 0x40 MLOAD PUSH1 0x0 DUP1 MLOAD PUSH1 0x20 PUSH2 0x24BF DUP4 CODECOPY DUP2 MLOAD SWAP2 MSTORE SWAP1 PUSH1 0x0 SWAP1 LOG2 PUSH1 0x0 DUP1 MLOAD PUSH1 0x20 PUSH2 0x249F DUP4 CODECOPY DUP2 MLOAD SWAP2 MSTORE PUSH1 0x40 MLOAD PUSH2 0x71F SWAP1 PUSH1 0x40 DUP1 DUP3 MSTORE PUSH1 0xE SWAP1 DUP3 ADD MSTORE PUSH14 0x11195B1A5D995C9E51985A5B1959 PUSH1 0x92 SHL PUSH1 0x60 DUP3 ADD MSTORE PUSH1 0x80 PUSH1 0x20 DUP3 ADD DUP2 SWAP1 MSTORE PUSH1 0x12 SWAP1 DUP3 ADD MSTORE PUSH18 0x436F6D6D616E646520656E206C6974696765 PUSH1 0x70 SHL PUSH1 0xA0 DUP3 ADD MSTORE PUSH1 0xC0 ADD SWAP1 JUMP JUMPDEST PUSH1 0x40 MLOAD DUP1 SWAP2 SUB SWAP1 LOG1 JUMPDEST POP PUSH2 0x732 PUSH1 0x1 DUP1 SSTORE JUMP JUMPDEST POP JUMP JUMPDEST PUSH1 0x0 DUP1 PUSH1 0xA PUSH1 0x0 SWAP1 SLOAD SWAP1 PUSH2 0x100 EXP SWAP1 DIV PUSH1 0x1 PUSH1 0x1 PUSH1 0xA0 SHL SUB AND PUSH1 0x1 PUSH1 0x1 PUSH1 0xA0 SHL SUB AND PUSH4 0xFEAF968C PUSH1 0x40 MLOAD DUP2 PUSH4 0xFFFFFFFF AND PUSH1 0xE0 SHL DUP2 MSTORE PUSH1 0x4 ADD PUSH1 0xA0 PUSH1 0x40 MLOAD DUP1 DUP4 SUB DUP2 DUP7 GAS STATICCALL ISZERO DUP1 ISZERO PUSH2 0x78B JUMPI RETURNDATASIZE PUSH1 0x0 DUP1 RETURNDATACOPY RETURNDATASIZE PUSH1 0x0 REVERT JUMPDEST POP POP POP POP PUSH1 0x40 MLOAD RETURNDATASIZE PUSH1 0x1F NOT PUSH1 0x1F DUP3 ADD AND DUP3 ADD DUP1 PUSH1 0x40 MSTORE POP DUP2 ADD SWAP1 PUSH2 0x7AF SWAP2 SWAP1 PUSH2 0x2015 JUMP JUMPDEST POP SWAP2 SWAP6 SWAP5 POP POP POP POP POP JUMP JUMPDEST CALLER PUSH1 0x0 SWAP1 DUP2 MSTORE PUSH1 0x8 PUSH1 0x20 MSTORE PUSH1 0x40 SWAP1 KECCAK256 SLOAD PUSH1 0xFF AND PUSH2 0x813 JUMPI PUSH1 0x40 MLOAD PUSH3 0x461BCD PUSH1 0xE5 SHL DUP2 MSTORE PUSH1 0x20 PUSH1 0x4 DUP3 ADD MSTORE PUSH1 0x17 PUSH1 0x24 DUP3 ADD MSTORE PUSH23 0x466F75726E697373657572206E6F6E20656E676167C3A9 PUSH1 0x48 SHL PUSH1 0x44 DUP3 ADD MSTORE PUSH1 0x64 ADD PUSH2 0x4BA JUMP JUMPDEST CALLER PUSH1 0x1 PUSH1 0x1 PUSH1 0xA0 SHL SUB AND PUSH32 0xC95C333E464B93DB7874A4FDEBCFBA2F7E9EF6B6074730ECB0FEB123C8EA59BE DUP4 DUP4 PUSH1 0x40 MLOAD PUSH2 0x84E SWAP3 SWAP2 SWAP1 PUSH2 0x208E JUMP JUMPDEST PUSH1 0x40 MLOAD DUP1 SWAP2 SUB SWAP1 LOG2 PUSH1 0x0 DUP1 MLOAD PUSH1 0x20 PUSH2 0x249F DUP4 CODECOPY DUP2 MLOAD SWAP2 MSTORE PUSH1 0x40 MLOAD PUSH2 0x8C1 SWAP1 PUSH1 0x40 DUP1 DUP3 MSTORE PUSH1 0x10 SWAP1 DUP3 ADD MSTORE PUSH16 0x1692D41C9BDBD994DD589B5A5D1D1959 PUSH1 0x82 SHL PUSH1 0x60 DUP3 ADD MSTORE PUSH1 0x80 PUSH1 0x20 DUP3 ADD DUP2 SWAP1 MSTORE PUSH1 0x13 SWAP1 DUP3 ADD MSTORE PUSH19 0x1692D4081C1C9BDBD9881CDD589B5A5D1D1959 PUSH1 0x6A SHL PUSH1 0xA0 DUP3 ADD MSTORE PUSH1 0xC0 ADD SWAP1 JUMP JUMPDEST PUSH1 0x40 MLOAD DUP1 SWAP2 SUB SWAP1 LOG1 POP POP JUMP JUMPDEST PUSH1 0x7 SLOAD PUSH1 0x1 PUSH1 0x1 PUSH1 0xA0 SHL SUB AND CALLER EQ PUSH2 0x933 JUMPI PUSH1 0x40 MLOAD PUSH3 0x461BCD PUSH1 0xE5 SHL DUP2 MSTORE PUSH1 0x20 PUSH1 0x4 DUP3 ADD MSTORE PUSH1 0x23 PUSH1 0x24 DUP3 ADD MSTORE PUSH32 0x5365756C206C652062757965722070657574206372C3A9657220756E20616363 PUSH1 0x44 DUP3 ADD MSTORE PUSH3 0x1BDC99 PUSH1 0xEA SHL PUSH1 0x64 DUP3 ADD MSTORE PUSH1 0x84 ADD PUSH2 0x4BA JUMP JUMPDEST PUSH1 0x0 PUSH1 0x6 SLOAD PUSH1 0xFF AND PUSH1 0x7 DUP2 GT ISZERO PUSH2 0x94C JUMPI PUSH2 0x94C PUSH2 0x1F3D JUMP JUMPDEST EQ DUP1 PUSH2 0x96E JUMPI POP PUSH1 0x7 PUSH1 0x6 SLOAD PUSH1 0xFF AND PUSH1 0x7 DUP2 GT ISZERO PUSH2 0x96C JUMPI PUSH2 0x96C PUSH2 0x1F3D JUMP JUMPDEST EQ JUMPDEST PUSH2 0x9BA JUMPI PUSH1 0x40 MLOAD PUSH3 0x461BCD PUSH1 0xE5 SHL DUP2 MSTORE PUSH1 0x20 PUSH1 0x4 DUP3 ADD DUP2 SWAP1 MSTORE PUSH1 0x24 DUP3 ADD MSTORE PUSH32 0xC38974617420696E76616C69646520706F7572206C61206372C3A96174696F6E PUSH1 0x44 DUP3 ADD MSTORE PUSH1 0x64 ADD PUSH2 0x4BA JUMP JUMPDEST TIMESTAMP DUP4 GT PUSH2 0xA15 JUMPI PUSH1 0x40 MLOAD PUSH3 0x461BCD PUSH1 0xE5 SHL DUP2 MSTORE PUSH1 0x20 PUSH1 0x4 DUP3 ADD MSTORE PUSH1 0x24 DUP1 DUP3 ADD MSTORE PUSH32 0x4C6120646561646C696E6520646F697420C3AA7472652064616E73206C652066 PUSH1 0x44 DUP3 ADD MSTORE PUSH4 0x3ABA3AB9 PUSH1 0xE1 SHL PUSH1 0x64 DUP3 ADD MSTORE PUSH1 0x84 ADD PUSH2 0x4BA JUMP JUMPDEST PUSH1 0x40 MLOAD DUP1 PUSH1 0xA0 ADD PUSH1 0x40 MSTORE DUP1 DUP7 DUP2 MSTORE PUSH1 0x20 ADD DUP6 DUP2 MSTORE PUSH1 0x20 ADD DUP5 DUP2 MSTORE PUSH1 0x20 ADD DUP4 DUP4 DUP1 DUP1 PUSH1 0x1F ADD PUSH1 0x20 DUP1 SWAP2 DIV MUL PUSH1 0x20 ADD PUSH1 0x40 MLOAD SWAP1 DUP2 ADD PUSH1 0x40 MSTORE DUP1 SWAP4 SWAP3 SWAP2 SWAP1 DUP2 DUP2 MSTORE PUSH1 0x20 ADD DUP4 DUP4 DUP1 DUP3 DUP5 CALLDATACOPY PUSH1 0x0 SWAP3 ADD DUP3 SWAP1 MSTORE POP SWAP4 DUP6 MSTORE POP POP POP PUSH1 0x20 SWAP2 DUP3 ADD MSTORE DUP2 MLOAD PUSH1 0x2 SWAP1 DUP2 SSTORE SWAP1 DUP3 ADD MLOAD PUSH1 0x3 SSTORE PUSH1 0x40 DUP3 ADD MLOAD PUSH1 0x4 SSTORE PUSH1 0x60 DUP3 ADD MLOAD PUSH1 0x5 SWAP1 PUSH2 0xA98 SWAP1 DUP3 PUSH2 0x2140 JUMP JUMPDEST POP PUSH1 0x80 DUP3 ADD MLOAD PUSH1 0x4 DUP3 ADD DUP1 SLOAD PUSH1 0xFF NOT AND PUSH1 0x1 DUP4 PUSH1 0x7 DUP2 GT ISZERO PUSH2 0xABC JUMPI PUSH2 0xABC PUSH2 0x1F3D JUMP JUMPDEST MUL OR SWAP1 SSTORE POP SWAP1 POP POP PUSH32 0x333F645E01B5704C88BAAB20E34C2C6857630DFBF5B9362D131210DE2AC02E11 DUP6 DUP6 DUP6 DUP6 DUP6 PUSH1 0x40 MLOAD PUSH2 0xAFB SWAP6 SWAP5 SWAP4 SWAP3 SWAP2 SWAP1 PUSH2 0x2200 JUMP JUMPDEST PUSH1 0x40 MLOAD DUP1 SWAP2 SUB SWAP1 LOG1 PUSH1 0x0 PUSH1 0x40 MLOAD PUSH1 0x0 DUP1 MLOAD PUSH1 0x20 PUSH2 0x24BF DUP4 CODECOPY DUP2 MLOAD SWAP2 MSTORE SWAP1 PUSH1 0x0 SWAP1 LOG2 PUSH1 0x0 DUP1 MLOAD PUSH1 0x20 PUSH2 0x249F DUP4 CODECOPY DUP2 MLOAD SWAP2 MSTORE DUP3 DUP3 PUSH1 0x40 MLOAD PUSH2 0xB3B SWAP3 SWAP2 SWAP1 PUSH2 0x2226 JUMP JUMPDEST PUSH1 0x40 MLOAD DUP1 SWAP2 SUB SWAP1 LOG1 POP POP POP POP POP JUMP JUMPDEST PUSH1 0x2 DUP1 SLOAD PUSH1 0x3 SLOAD PUSH1 0x4 SLOAD PUSH1 0x5 DUP1 SLOAD SWAP4 SWAP5 SWAP3 SWAP4 SWAP2 SWAP3 SWAP2 PUSH2 0xB68 SWAP1 PUSH2 0x20B8 JUMP JUMPDEST DUP1 PUSH1 0x1F ADD PUSH1 0x20 DUP1 SWAP2 DIV MUL PUSH1 0x20 ADD PUSH1 0x40 MLOAD SWAP1 DUP2 ADD PUSH1 0x40 MSTORE DUP1 SWAP3 SWAP2 SWAP1 DUP2 DUP2 MSTORE PUSH1 0x20 ADD DUP3 DUP1 SLOAD PUSH2 0xB94 SWAP1 PUSH2 0x20B8 JUMP JUMPDEST DUP1 ISZERO PUSH2 0xBE1 JUMPI DUP1 PUSH1 0x1F LT PUSH2 0xBB6 JUMPI PUSH2 0x100 DUP1 DUP4 SLOAD DIV MUL DUP4 MSTORE SWAP2 PUSH1 0x20 ADD SWAP2 PUSH2 0xBE1 JUMP JUMPDEST DUP3 ADD SWAP2 SWAP1 PUSH1 0x0 MSTORE PUSH1 0x20 PUSH1 0x0 KECCAK256 SWAP1 JUMPDEST DUP2 SLOAD DUP2 MSTORE SWAP1 PUSH1 0x1 ADD SWAP1 PUSH1 0x20 ADD DUP1 DUP4 GT PUSH2 0xBC4 JUMPI DUP3 SWAP1 SUB PUSH1 0x1F AND DUP3 ADD SWAP2 JUMPDEST POP POP POP PUSH1 0x4 SWAP1 SWAP4 ADD SLOAD SWAP2 SWAP3 POP POP PUSH1 0xFF AND DUP6 JUMP JUMPDEST PUSH2 0xBFC PUSH2 0x16B5 JUMP JUMPDEST PUSH1 0x7 SLOAD PUSH1 0x1 PUSH1 0x1 PUSH1 0xA0 SHL SUB AND CALLER EQ PUSH2 0xC67 JUMPI PUSH1 0x40 MLOAD PUSH3 0x461BCD PUSH1 0xE5 SHL DUP2 MSTORE PUSH1 0x20 PUSH1 0x4 DUP3 ADD MSTORE PUSH1 0x28 PUSH1 0x24 DUP3 ADD MSTORE PUSH32 0x5365756C206C65206275796572207065757420636F6E6669726D6572206C6520 PUSH1 0x44 DUP3 ADD MSTORE PUSH8 0x1C185A595B595B9D PUSH1 0xC2 SHL PUSH1 0x64 DUP3 ADD MSTORE PUSH1 0x84 ADD PUSH2 0x4BA JUMP JUMPDEST PUSH1 0x0 PUSH1 0x6 SLOAD PUSH1 0xFF AND PUSH1 0x7 DUP2 GT ISZERO PUSH2 0xC80 JUMPI PUSH2 0xC80 PUSH2 0x1F3D JUMP JUMPDEST EQ PUSH2 0xCE1 JUMPI PUSH1 0x40 MLOAD PUSH3 0x461BCD PUSH1 0xE5 SHL DUP2 MSTORE PUSH1 0x20 PUSH1 0x4 DUP3 ADD MSTORE PUSH1 0x2B PUSH1 0x24 DUP3 ADD MSTORE PUSH32 0x4C276163636F726420646F697420C3AA74726520656E20C3A974617420646520 PUSH1 0x44 DUP3 ADD MSTORE PUSH11 0x2732B3B7BA34B0BA34B7B7 PUSH1 0xA9 SHL PUSH1 0x64 DUP3 ADD MSTORE PUSH1 0x84 ADD PUSH2 0x4BA JUMP JUMPDEST PUSH1 0x2 SLOAD PUSH1 0x3 SLOAD PUSH1 0x0 SWAP2 PUSH2 0xCF3 SWAP2 PUSH2 0x2277 JUMP JUMPDEST SWAP1 POP DUP1 DUP3 EQ PUSH2 0xD50 JUMPI PUSH1 0x40 MLOAD PUSH3 0x461BCD PUSH1 0xE5 SHL DUP2 MSTORE PUSH1 0x20 PUSH1 0x4 DUP3 ADD MSTORE PUSH1 0x23 PUSH1 0x24 DUP3 ADD MSTORE PUSH32 0x4D6F6E74616E7420696E737566666973616E7420706F7572206CE28099616363 PUSH1 0x44 DUP3 ADD MSTORE PUSH3 0x1BDC99 PUSH1 0xEA SHL PUSH1 0x64 DUP3 ADD MSTORE PUSH1 0x84 ADD PUSH2 0x4BA JUMP JUMPDEST PUSH1 0xB SLOAD PUSH2 0xD68 SWAP1 PUSH1 0x1 PUSH1 0x1 PUSH1 0xA0 SHL SUB AND CALLER ADDRESS DUP6 PUSH2 0x1771 JUMP JUMPDEST PUSH1 0xC DUP3 SWAP1 SSTORE PUSH1 0x6 DUP1 SLOAD PUSH1 0xFF NOT AND PUSH1 0x1 OR SWAP1 SSTORE PUSH1 0x40 MLOAD DUP3 DUP2 MSTORE CALLER SWAP1 PUSH32 0x9250BE6D331C7B11672FC0207421BFC1631FB0DDFA5479299C034AC0EC06583C SWAP1 PUSH1 0x20 ADD PUSH1 0x40 MLOAD DUP1 SWAP2 SUB SWAP1 LOG2 PUSH1 0x1 PUSH1 0x40 MLOAD PUSH1 0x0 DUP1 MLOAD PUSH1 0x20 PUSH2 0x24BF DUP4 CODECOPY DUP2 MLOAD SWAP2 MSTORE SWAP1 PUSH1 0x0 SWAP1 LOG2 PUSH1 0x0 DUP1 MLOAD PUSH1 0x20 PUSH2 0x249F DUP4 CODECOPY DUP2 MLOAD SWAP2 MSTORE PUSH2 0xDE0 DUP4 PUSH2 0x17AF JUMP JUMPDEST PUSH1 0x40 MLOAD PUSH2 0x71F SWAP2 SWAP1 PUSH2 0x228E JUMP JUMPDEST PUSH2 0xDF5 PUSH2 0x16B5 JUMP JUMPDEST PUSH32 0x16CEEE8289685DD2A02B9C8AE81D2DF373176CE53519E6284E2A2950D6546FFA PUSH2 0xE1F DUP2 PUSH2 0x15C2 JUMP JUMPDEST PUSH1 0x6 DUP1 SLOAD PUSH1 0xFF AND PUSH1 0x7 DUP2 GT ISZERO PUSH2 0xE37 JUMPI PUSH2 0xE37 PUSH2 0x1F3D JUMP JUMPDEST EQ PUSH2 0xE99 JUMPI PUSH1 0x40 MLOAD PUSH3 0x461BCD PUSH1 0xE5 SHL DUP2 MSTORE PUSH1 0x20 PUSH1 0x4 DUP3 ADD MSTORE PUSH1 0x2C PUSH1 0x24 DUP3 ADD MSTORE PUSH32 0xC38974617420696E76616C69646520706F7572206C612072C3A9736F6C757469 PUSH1 0x44 DUP3 ADD MSTORE PUSH12 0x6F6E206475206C6974696765 PUSH1 0xA0 SHL PUSH1 0x64 DUP3 ADD MSTORE PUSH1 0x84 ADD PUSH2 0x4BA JUMP JUMPDEST PUSH1 0x40 DUP1 MLOAD DUP1 DUP3 ADD DUP3 MSTORE PUSH1 0xB DUP2 MSTORE PUSH11 0x2932B33AB732213ABCB2B9 PUSH1 0xA9 SHL PUSH1 0x20 SWAP1 SWAP2 ADD MSTORE MLOAD PUSH32 0x99470F51A0D3F4CE2D1E7B245A3F441C80CD6340CAEB62B2F0F42FC3F1ACF782 SWAP1 PUSH2 0xEEB SWAP1 DUP6 SWAP1 DUP6 SWAP1 PUSH2 0x22C8 JUMP JUMPDEST PUSH1 0x40 MLOAD DUP1 SWAP2 SUB SWAP1 KECCAK256 SUB PUSH2 0xF31 JUMPI PUSH1 0x6 DUP1 SLOAD PUSH1 0xFF NOT AND PUSH1 0x7 SWAP1 DUP2 OR SWAP1 SWAP2 SSTORE SLOAD PUSH1 0xC SLOAD PUSH1 0xB SLOAD PUSH2 0xF27 SWAP3 PUSH1 0x1 PUSH1 0x1 PUSH1 0xA0 SHL SUB SWAP2 DUP3 AND SWAP3 SWAP2 AND SWAP1 PUSH2 0x170E JUMP JUMPDEST PUSH1 0x0 PUSH1 0xC SSTORE PUSH2 0xFC3 JUMP JUMPDEST PUSH1 0x40 DUP1 MLOAD DUP1 DUP3 ADD DUP3 MSTORE PUSH1 0xC DUP2 MSTORE PUSH12 0x52656C6561736546756E6473 PUSH1 0xA0 SHL PUSH1 0x20 SWAP1 SWAP2 ADD MSTORE MLOAD PUSH32 0x7F9D99B008E6E7F408F271E747DE0380E73BDD74A4A60F54FE0DFDBE7E3F3D0E SWAP1 PUSH2 0xF84 SWAP1 DUP6 SWAP1 DUP6 SWAP1 PUSH2 0x22C8 JUMP JUMPDEST PUSH1 0x40 MLOAD DUP1 SWAP2 SUB SWAP1 KECCAK256 SUB PUSH2 0xFC3 JUMPI PUSH1 0x6 DUP1 SLOAD PUSH1 0xFF NOT AND PUSH1 0x5 OR SWAP1 SSTORE PUSH1 0x9 SLOAD ISZERO PUSH2 0xFBD JUMPI PUSH2 0xFBD PUSH1 0x9 PUSH1 0x0 DUP2 SLOAD DUP2 LT PUSH2 0x5D0 JUMPI PUSH2 0x5D0 PUSH2 0x1FE5 JUMP JUMPDEST PUSH1 0x0 PUSH1 0xC SSTORE JUMPDEST PUSH32 0x6478282E06F428E8CC4A5A3F8E08080CEF19DCC8ED01914A202782C93D1AD51E DUP4 DUP4 PUSH1 0x40 MLOAD PUSH2 0xFF4 SWAP3 SWAP2 SWAP1 PUSH2 0x208E JUMP JUMPDEST PUSH1 0x40 MLOAD DUP1 SWAP2 SUB SWAP1 LOG1 PUSH1 0x6 SLOAD PUSH1 0xFF AND PUSH1 0x7 DUP2 GT ISZERO PUSH2 0x1013 JUMPI PUSH2 0x1013 PUSH2 0x1F3D JUMP JUMPDEST PUSH1 0x40 MLOAD PUSH1 0x0 DUP1 MLOAD PUSH1 0x20 PUSH2 0x24BF DUP4 CODECOPY DUP2 MLOAD SWAP2 MSTORE SWAP1 PUSH1 0x0 SWAP1 LOG2 PUSH1 0x0 DUP1 MLOAD PUSH1 0x20 PUSH2 0x249F DUP4 CODECOPY DUP2 MLOAD SWAP2 MSTORE DUP4 DUP4 PUSH1 0x40 MLOAD PUSH2 0x1049 SWAP3 SWAP2 SWAP1 PUSH2 0x22D8 JUMP JUMPDEST PUSH1 0x40 MLOAD DUP1 SWAP2 SUB SWAP1 LOG1 POP PUSH2 0x4CD PUSH1 0x1 DUP1 SSTORE JUMP JUMPDEST PUSH1 0x0 SWAP2 DUP3 MSTORE PUSH1 0x20 DUP3 DUP2 MSTORE PUSH1 0x40 DUP1 DUP5 KECCAK256 PUSH1 0x1 PUSH1 0x1 PUSH1 0xA0 SHL SUB SWAP4 SWAP1 SWAP4 AND DUP5 MSTORE SWAP2 SWAP1 MSTORE SWAP1 KECCAK256 SLOAD PUSH1 0xFF AND SWAP1 JUMP JUMPDEST PUSH1 0x9 DUP2 DUP2 SLOAD DUP2 LT PUSH2 0x1094 JUMPI PUSH1 0x0 DUP1 REVERT JUMPDEST PUSH1 0x0 SWAP2 DUP3 MSTORE PUSH1 0x20 SWAP1 SWAP2 KECCAK256 ADD SLOAD PUSH1 0x1 PUSH1 0x1 PUSH1 0xA0 SHL SUB AND SWAP1 POP DUP2 JUMP JUMPDEST CALLER PUSH1 0x0 SWAP1 DUP2 MSTORE PUSH1 0x8 PUSH1 0x20 MSTORE PUSH1 0x40 SWAP1 KECCAK256 SLOAD PUSH1 0xFF AND PUSH2 0x1106 JUMPI PUSH1 0x40 MLOAD PUSH3 0x461BCD PUSH1 0xE5 SHL DUP2 MSTORE PUSH1 0x20 PUSH1 0x4 DUP3 ADD MSTORE PUSH1 0x16 PUSH1 0x24 DUP3 ADD MSTORE PUSH22 0x466F75726E697373657572206E6F6E2076616C696465 PUSH1 0x50 SHL PUSH1 0x44 DUP3 ADD MSTORE PUSH1 0x64 ADD PUSH2 0x4BA JUMP JUMPDEST PUSH1 0x2 PUSH1 0x6 SLOAD PUSH1 0xFF AND PUSH1 0x7 DUP2 GT ISZERO PUSH2 0x111F JUMPI PUSH2 0x111F PUSH2 0x1F3D JUMP JUMPDEST EQ PUSH2 0x116C JUMPI PUSH1 0x40 MLOAD PUSH3 0x461BCD PUSH1 0xE5 SHL DUP2 MSTORE PUSH1 0x20 PUSH1 0x4 DUP3 ADD MSTORE PUSH1 0x1B PUSH1 0x24 DUP3 ADD MSTORE PUSH32 0xC38974617420696E76616C69646520706F7572206C27656E766F690000000000 PUSH1 0x44 DUP3 ADD MSTORE PUSH1 0x64 ADD PUSH2 0x4BA JUMP JUMPDEST PUSH1 0x6 DUP1 SLOAD PUSH1 0xFF NOT AND PUSH1 0x4 OR SWAP1 SSTORE PUSH1 0x40 MLOAD CALLER SWAP1 PUSH32 0xA766451B403B77E89B1C7B2104774EBF06C2448ECE93C98B15C0680B6E40B54D SWAP1 PUSH1 0x0 SWAP1 LOG2 PUSH1 0x4 PUSH1 0x40 MLOAD PUSH1 0x0 DUP1 MLOAD PUSH1 0x20 PUSH2 0x24BF DUP4 CODECOPY DUP2 MLOAD SWAP2 MSTORE SWAP1 PUSH1 0x0 SWAP1 LOG2 PUSH1 0x0 DUP1 MLOAD PUSH1 0x20 PUSH2 0x249F DUP4 CODECOPY DUP2 MLOAD SWAP2 MSTORE PUSH1 0x40 MLOAD PUSH2 0x1224 SWAP1 PUSH1 0x40 DUP1 DUP3 MSTORE PUSH1 0xF SWAP1 DUP3 ADD MSTORE PUSH15 0x13DC99195C911A5CDC185D18DA1959 PUSH1 0x8A SHL PUSH1 0x60 DUP3 ADD MSTORE PUSH1 0x80 PUSH1 0x20 DUP3 ADD DUP2 SWAP1 MSTORE PUSH1 0x10 SWAP1 DUP3 ADD MSTORE PUSH16 0x13DC99195C88191A5CDC185D18DA1959 PUSH1 0x82 SHL PUSH1 0xA0 DUP3 ADD MSTORE PUSH1 0xC0 ADD SWAP1 JUMP JUMPDEST PUSH1 0x40 MLOAD DUP1 SWAP2 SUB SWAP1 LOG1 JUMP JUMPDEST PUSH1 0x0 DUP3 DUP2 MSTORE PUSH1 0x20 DUP2 SWAP1 MSTORE PUSH1 0x40 SWAP1 KECCAK256 PUSH1 0x1 ADD SLOAD PUSH2 0x1249 DUP2 PUSH2 0x15C2 JUMP JUMPDEST PUSH2 0x449 DUP4 DUP4 PUSH2 0x1650 JUMP JUMPDEST PUSH1 0x0 PUSH1 0x6 SLOAD PUSH1 0xFF AND PUSH1 0x7 DUP2 GT ISZERO PUSH2 0x126C JUMPI PUSH2 0x126C PUSH2 0x1F3D JUMP JUMPDEST EQ PUSH2 0x12C4 JUMPI PUSH1 0x40 MLOAD PUSH3 0x461BCD PUSH1 0xE5 SHL DUP2 MSTORE PUSH1 0x20 PUSH1 0x4 DUP3 ADD MSTORE PUSH1 0x22 PUSH1 0x24 DUP3 ADD MSTORE PUSH32 0x4163636F7264206E6F6E20656E20C3A9746174206465204E65676F7469617469 PUSH1 0x44 DUP3 ADD MSTORE PUSH2 0x37B7 PUSH1 0xF1 SHL PUSH1 0x64 DUP3 ADD MSTORE PUSH1 0x84 ADD PUSH2 0x4BA JUMP JUMPDEST CALLER PUSH1 0x0 SWAP1 DUP2 MSTORE PUSH1 0x8 PUSH1 0x20 MSTORE PUSH1 0x40 SWAP1 KECCAK256 SLOAD PUSH1 0xFF AND PUSH2 0x1338 JUMPI CALLER PUSH1 0x0 DUP2 DUP2 MSTORE PUSH1 0x8 PUSH1 0x20 MSTORE PUSH1 0x40 DUP2 KECCAK256 DUP1 SLOAD PUSH1 0xFF NOT AND PUSH1 0x1 SWAP1 DUP2 OR SWAP1 SWAP2 SSTORE PUSH1 0x9 DUP1 SLOAD SWAP2 DUP3 ADD DUP2 SSTORE SWAP1 SWAP2 MSTORE PUSH32 0x6E1540171B6C0C960B71A7020D9F60077F6AF931A8BBF590DA0223DACF75C7AF ADD DUP1 SLOAD PUSH1 0x1 PUSH1 0x1 PUSH1 0xA0 SHL SUB NOT AND SWAP1 SWAP2 OR SWAP1 SSTORE JUMPDEST JUMP JUMPDEST PUSH1 0x7 SLOAD PUSH1 0x1 PUSH1 0x1 PUSH1 0xA0 SHL SUB AND CALLER EQ PUSH2 0x1394 JUMPI PUSH1 0x40 MLOAD PUSH3 0x461BCD PUSH1 0xE5 SHL DUP2 MSTORE PUSH1 0x20 PUSH1 0x4 DUP3 ADD MSTORE PUSH1 0x18 PUSH1 0x24 DUP3 ADD MSTORE PUSH32 0x5365756C206C652062757965722070657574206E6F7465720000000000000000 PUSH1 0x44 DUP3 ADD MSTORE PUSH1 0x64 ADD PUSH2 0x4BA JUMP JUMPDEST PUSH1 0x1 DUP2 PUSH1 0xFF AND LT ISZERO DUP1 ISZERO PUSH2 0x13AC JUMPI POP PUSH1 0x5 DUP2 PUSH1 0xFF AND GT ISZERO JUMPDEST PUSH2 0x13F8 JUMPI PUSH1 0x40 MLOAD PUSH3 0x461BCD PUSH1 0xE5 SHL DUP2 MSTORE PUSH1 0x20 PUSH1 0x4 DUP3 ADD MSTORE PUSH1 0x1F PUSH1 0x24 DUP3 ADD MSTORE PUSH32 0x4C61206E6F746520646F697420C3AA74726520656E7472652031206574203500 PUSH1 0x44 DUP3 ADD MSTORE PUSH1 0x64 ADD PUSH2 0x4BA JUMP JUMPDEST PUSH1 0x1 PUSH1 0x1 PUSH1 0xA0 SHL SUB DUP3 AND PUSH1 0x0 SWAP1 DUP2 MSTORE PUSH1 0x8 PUSH1 0x20 MSTORE PUSH1 0x40 SWAP1 KECCAK256 SLOAD PUSH1 0xFF AND PUSH2 0x145A JUMPI PUSH1 0x40 MLOAD PUSH3 0x461BCD PUSH1 0xE5 SHL DUP2 MSTORE PUSH1 0x20 PUSH1 0x4 DUP3 ADD MSTORE PUSH1 0x17 PUSH1 0x24 DUP3 ADD MSTORE PUSH23 0x466F75726E697373657572206E6F6E20656E676167C3A9 PUSH1 0x48 SHL PUSH1 0x44 DUP3 ADD MSTORE PUSH1 0x64 ADD PUSH2 0x4BA JUMP JUMPDEST PUSH1 0x1 PUSH1 0x1 PUSH1 0xA0 SHL SUB DUP3 AND PUSH1 0x0 DUP2 DUP2 MSTORE PUSH1 0x8 PUSH1 0x20 SWAP1 DUP2 MSTORE PUSH1 0x40 SWAP2 DUP3 SWAP1 KECCAK256 DUP1 SLOAD PUSH2 0xFF00 NOT AND PUSH2 0x100 PUSH1 0xFF DUP8 AND SWAP1 DUP2 MUL SWAP2 SWAP1 SWAP2 OR SWAP1 SWAP2 SSTORE SWAP2 MLOAD SWAP2 DUP3 MSTORE PUSH32 0xD54624FC9751940A1A3DC837603098FE07D6465F0A1ECC4DA25C37461B146E4 SWAP2 ADD PUSH1 0x40 MLOAD DUP1 SWAP2 SUB SWAP1 LOG2 PUSH1 0x0 DUP1 MLOAD PUSH1 0x20 PUSH2 0x249F DUP4 CODECOPY DUP2 MLOAD SWAP2 MSTORE PUSH2 0x14D9 DUP3 PUSH1 0xFF AND PUSH2 0x17AF JUMP JUMPDEST PUSH1 0x40 MLOAD PUSH2 0x8C1 SWAP2 SWAP1 PUSH2 0x2312 JUMP JUMPDEST PUSH1 0x4 SLOAD TIMESTAMP GT ISZERO PUSH2 0x1538 JUMPI PUSH1 0x40 MLOAD PUSH3 0x461BCD PUSH1 0xE5 SHL DUP2 MSTORE PUSH1 0x20 PUSH1 0x4 DUP3 ADD MSTORE PUSH1 0x1A PUSH1 0x24 DUP3 ADD MSTORE PUSH32 0x4C6120646561646C696E65206573742064C3A970617373C3A965000000000000 PUSH1 0x44 DUP3 ADD MSTORE PUSH1 0x64 ADD PUSH2 0x4BA JUMP JUMPDEST PUSH1 0x6 DUP1 SLOAD PUSH1 0xFF NOT AND PUSH1 0x2 SWAP1 DUP2 OR SWAP1 SWAP2 SSTORE PUSH1 0x40 MLOAD PUSH1 0x0 DUP1 MLOAD PUSH1 0x20 PUSH2 0x24BF DUP4 CODECOPY DUP2 MLOAD SWAP2 MSTORE SWAP1 PUSH1 0x0 SWAP1 LOG2 PUSH1 0x0 DUP1 MLOAD PUSH1 0x20 PUSH2 0x249F DUP4 CODECOPY DUP2 MLOAD SWAP2 MSTORE PUSH1 0x40 MLOAD PUSH2 0x1224 SWAP1 PUSH1 0x40 DUP1 DUP3 MSTORE PUSH1 0xE SWAP1 DUP3 ADD MSTORE PUSH14 0x14DD185C9D1059DC99595B595B9D PUSH1 0x92 SHL PUSH1 0x60 DUP3 ADD MSTORE PUSH1 0x80 PUSH1 0x20 DUP3 ADD DUP2 SWAP1 MSTORE PUSH1 0xD SWAP1 DUP3 ADD MSTORE PUSH13 0x13DC99195C881CDD185C9D1959 PUSH1 0x9A SHL PUSH1 0xA0 DUP3 ADD MSTORE PUSH1 0xC0 ADD SWAP1 JUMP JUMPDEST PUSH2 0x732 DUP2 CALLER PUSH2 0x18C0 JUMP JUMPDEST PUSH2 0x15D6 DUP3 DUP3 PUSH2 0x105B JUMP JUMPDEST PUSH2 0x4CD JUMPI PUSH1 0x0 DUP3 DUP2 MSTORE PUSH1 0x20 DUP2 DUP2 MSTORE PUSH1 0x40 DUP1 DUP4 KECCAK256 PUSH1 0x1 PUSH1 0x1 PUSH1 0xA0 SHL SUB DUP6 AND DUP5 MSTORE SWAP1 SWAP2 MSTORE SWAP1 KECCAK256 DUP1 SLOAD PUSH1 0xFF NOT AND PUSH1 0x1 OR SWAP1 SSTORE PUSH2 0x160C CALLER SWAP1 JUMP JUMPDEST PUSH1 0x1 PUSH1 0x1 PUSH1 0xA0 SHL SUB AND DUP2 PUSH1 0x1 PUSH1 0x1 PUSH1 0xA0 SHL SUB AND DUP4 PUSH32 0x2F8788117E7EFF1D82E926EC794901D17C78024A50270940304540A733656F0D PUSH1 0x40 MLOAD PUSH1 0x40 MLOAD DUP1 SWAP2 SUB SWAP1 LOG4 POP POP JUMP JUMPDEST PUSH2 0x165A DUP3 DUP3 PUSH2 0x105B JUMP JUMPDEST ISZERO PUSH2 0x4CD JUMPI PUSH1 0x0 DUP3 DUP2 MSTORE PUSH1 0x20 DUP2 DUP2 MSTORE PUSH1 0x40 DUP1 DUP4 KECCAK256 PUSH1 0x1 PUSH1 0x1 PUSH1 0xA0 SHL SUB DUP6 AND DUP1 DUP6 MSTORE SWAP3 MSTORE DUP1 DUP4 KECCAK256 DUP1 SLOAD PUSH1 0xFF NOT AND SWAP1 SSTORE MLOAD CALLER SWAP3 DUP6 SWAP2 PUSH32 0xF6391F5C32D9C69D2A47EA670B442974B53935D1EDC7FD64EB21E047A839171B SWAP2 SWAP1 LOG4 POP POP JUMP JUMPDEST PUSH1 0x2 PUSH1 0x1 SLOAD SUB PUSH2 0x1707 JUMPI PUSH1 0x40 MLOAD PUSH3 0x461BCD PUSH1 0xE5 SHL DUP2 MSTORE PUSH1 0x20 PUSH1 0x4 DUP3 ADD MSTORE PUSH1 0x1F PUSH1 0x24 DUP3 ADD MSTORE PUSH32 0x5265656E7472616E637947756172643A207265656E7472616E742063616C6C00 PUSH1 0x44 DUP3 ADD MSTORE PUSH1 0x64 ADD PUSH2 0x4BA JUMP JUMPDEST PUSH1 0x2 PUSH1 0x1 SSTORE JUMP JUMPDEST PUSH1 0x40 MLOAD PUSH1 0x1 PUSH1 0x1 PUSH1 0xA0 SHL SUB DUP4 AND PUSH1 0x24 DUP3 ADD MSTORE PUSH1 0x44 DUP2 ADD DUP3 SWAP1 MSTORE PUSH2 0x449 SWAP1 DUP5 SWAP1 PUSH4 0xA9059CBB PUSH1 0xE0 SHL SWAP1 PUSH1 0x64 ADD JUMPDEST PUSH1 0x40 DUP1 MLOAD PUSH1 0x1F NOT DUP2 DUP5 SUB ADD DUP2 MSTORE SWAP2 SWAP1 MSTORE PUSH1 0x20 DUP2 ADD DUP1 MLOAD PUSH1 0x1 PUSH1 0x1 PUSH1 0xE0 SHL SUB AND PUSH1 0x1 PUSH1 0x1 PUSH1 0xE0 SHL SUB NOT SWAP1 SWAP4 AND SWAP3 SWAP1 SWAP3 OR SWAP1 SWAP2 MSTORE PUSH2 0x1919 JUMP JUMPDEST PUSH1 0x40 MLOAD PUSH1 0x1 PUSH1 0x1 PUSH1 0xA0 SHL SUB DUP1 DUP6 AND PUSH1 0x24 DUP4 ADD MSTORE DUP4 AND PUSH1 0x44 DUP3 ADD MSTORE PUSH1 0x64 DUP2 ADD DUP3 SWAP1 MSTORE PUSH2 0x17A9 SWAP1 DUP6 SWAP1 PUSH4 0x23B872DD PUSH1 0xE0 SHL SWAP1 PUSH1 0x84 ADD PUSH2 0x173A JUMP JUMPDEST POP POP POP POP JUMP JUMPDEST PUSH1 0x60 DUP2 PUSH1 0x0 SUB PUSH2 0x17D6 JUMPI POP POP PUSH1 0x40 DUP1 MLOAD DUP1 DUP3 ADD SWAP1 SWAP2 MSTORE PUSH1 0x1 DUP2 MSTORE PUSH1 0x3 PUSH1 0xFC SHL PUSH1 0x20 DUP3 ADD MSTORE SWAP1 JUMP JUMPDEST DUP2 PUSH1 0x0 JUMPDEST DUP2 ISZERO PUSH2 0x1800 JUMPI DUP1 PUSH2 0x17EA DUP2 PUSH2 0x2349 JUMP JUMPDEST SWAP2 POP PUSH2 0x17F9 SWAP1 POP PUSH1 0xA DUP4 PUSH2 0x2378 JUMP JUMPDEST SWAP2 POP PUSH2 0x17DA JUMP JUMPDEST PUSH1 0x0 DUP2 PUSH8 0xFFFFFFFFFFFFFFFF DUP2 GT ISZERO PUSH2 0x181B JUMPI PUSH2 0x181B PUSH2 0x20A2 JUMP JUMPDEST PUSH1 0x40 MLOAD SWAP1 DUP1 DUP3 MSTORE DUP1 PUSH1 0x1F ADD PUSH1 0x1F NOT AND PUSH1 0x20 ADD DUP3 ADD PUSH1 0x40 MSTORE DUP1 ISZERO PUSH2 0x1845 JUMPI PUSH1 0x20 DUP3 ADD DUP2 DUP1 CALLDATASIZE DUP4 CALLDATACOPY ADD SWAP1 POP JUMPDEST POP SWAP1 POP DUP2 JUMPDEST DUP6 ISZERO PUSH2 0x18B7 JUMPI PUSH2 0x185B PUSH1 0x1 DUP3 PUSH2 0x238C JUMP JUMPDEST SWAP1 POP PUSH1 0x0 PUSH2 0x186A PUSH1 0xA DUP9 PUSH2 0x239F JUMP JUMPDEST PUSH2 0x1875 SWAP1 PUSH1 0x30 PUSH2 0x23B3 JUMP JUMPDEST SWAP1 POP DUP1 PUSH1 0xF8 SHL DUP4 DUP4 DUP2 MLOAD DUP2 LT PUSH2 0x188D JUMPI PUSH2 0x188D PUSH2 0x1FE5 JUMP JUMPDEST PUSH1 0x20 ADD ADD SWAP1 PUSH1 0x1 PUSH1 0x1 PUSH1 0xF8 SHL SUB NOT AND SWAP1 DUP2 PUSH1 0x0 BYTE SWAP1 MSTORE8 POP PUSH2 0x18AF PUSH1 0xA DUP9 PUSH2 0x2378 JUMP JUMPDEST SWAP7 POP POP PUSH2 0x184A JUMP JUMPDEST POP SWAP5 SWAP4 POP POP POP POP JUMP JUMPDEST PUSH2 0x18CA DUP3 DUP3 PUSH2 0x105B JUMP JUMPDEST PUSH2 0x4CD JUMPI PUSH2 0x18D7 DUP2 PUSH2 0x19EB JUMP JUMPDEST PUSH2 0x18E2 DUP4 PUSH1 0x20 PUSH2 0x19FD JUMP JUMPDEST PUSH1 0x40 MLOAD PUSH1 0x20 ADD PUSH2 0x18F3 SWAP3 SWAP2 SWAP1 PUSH2 0x23C6 JUMP JUMPDEST PUSH1 0x40 DUP1 MLOAD PUSH1 0x1F NOT DUP2 DUP5 SUB ADD DUP2 MSTORE SWAP1 DUP3 SWAP1 MSTORE PUSH3 0x461BCD PUSH1 0xE5 SHL DUP3 MSTORE PUSH2 0x4BA SWAP2 PUSH1 0x4 ADD PUSH2 0x243B JUMP JUMPDEST PUSH1 0x0 PUSH2 0x196E DUP3 PUSH1 0x40 MLOAD DUP1 PUSH1 0x40 ADD PUSH1 0x40 MSTORE DUP1 PUSH1 0x20 DUP2 MSTORE PUSH1 0x20 ADD PUSH32 0x5361666545524332303A206C6F772D6C6576656C2063616C6C206661696C6564 DUP2 MSTORE POP DUP6 PUSH1 0x1 PUSH1 0x1 PUSH1 0xA0 SHL SUB AND PUSH2 0x1BA0 SWAP1 SWAP3 SWAP2 SWAP1 PUSH4 0xFFFFFFFF AND JUMP JUMPDEST DUP1 MLOAD SWAP1 SWAP2 POP ISZERO PUSH2 0x449 JUMPI DUP1 DUP1 PUSH1 0x20 ADD SWAP1 MLOAD DUP2 ADD SWAP1 PUSH2 0x198C SWAP2 SWAP1 PUSH2 0x244E JUMP JUMPDEST PUSH2 0x449 JUMPI PUSH1 0x40 MLOAD PUSH3 0x461BCD PUSH1 0xE5 SHL DUP2 MSTORE PUSH1 0x20 PUSH1 0x4 DUP3 ADD MSTORE PUSH1 0x2A PUSH1 0x24 DUP3 ADD MSTORE PUSH32 0x5361666545524332303A204552433230206F7065726174696F6E20646964206E PUSH1 0x44 DUP3 ADD MSTORE PUSH10 0x1BDD081CDD58D8D95959 PUSH1 0xB2 SHL PUSH1 0x64 DUP3 ADD MSTORE PUSH1 0x84 ADD PUSH2 0x4BA JUMP JUMPDEST PUSH1 0x60 PUSH2 0x41E PUSH1 0x1 PUSH1 0x1 PUSH1 0xA0 SHL SUB DUP4 AND PUSH1 0x14 JUMPDEST PUSH1 0x60 PUSH1 0x0 PUSH2 0x1A0C DUP4 PUSH1 0x2 PUSH2 0x2277 JUMP JUMPDEST PUSH2 0x1A17 SWAP1 PUSH1 0x2 PUSH2 0x23B3 JUMP JUMPDEST PUSH8 0xFFFFFFFFFFFFFFFF DUP2 GT ISZERO PUSH2 0x1A2F JUMPI PUSH2 0x1A2F PUSH2 0x20A2 JUMP JUMPDEST PUSH1 0x40 MLOAD SWAP1 DUP1 DUP3 MSTORE DUP1 PUSH1 0x1F ADD PUSH1 0x1F NOT AND PUSH1 0x20 ADD DUP3 ADD PUSH1 0x40 MSTORE DUP1 ISZERO PUSH2 0x1A59 JUMPI PUSH1 0x20 DUP3 ADD DUP2 DUP1 CALLDATASIZE DUP4 CALLDATACOPY ADD SWAP1 POP JUMPDEST POP SWAP1 POP PUSH1 0x3 PUSH1 0xFC SHL DUP2 PUSH1 0x0 DUP2 MLOAD DUP2 LT PUSH2 0x1A74 JUMPI PUSH2 0x1A74 PUSH2 0x1FE5 JUMP JUMPDEST PUSH1 0x20 ADD ADD SWAP1 PUSH1 0x1 PUSH1 0x1 PUSH1 0xF8 SHL SUB NOT AND SWAP1 DUP2 PUSH1 0x0 BYTE SWAP1 MSTORE8 POP PUSH1 0xF PUSH1 0xFB SHL DUP2 PUSH1 0x1 DUP2 MLOAD DUP2 LT PUSH2 0x1AA3 JUMPI PUSH2 0x1AA3 PUSH2 0x1FE5 JUMP JUMPDEST PUSH1 0x20 ADD ADD SWAP1 PUSH1 0x1 PUSH1 0x1 PUSH1 0xF8 SHL SUB NOT AND SWAP1 DUP2 PUSH1 0x0 BYTE SWAP1 MSTORE8 POP PUSH1 0x0 PUSH2 0x1AC7 DUP5 PUSH1 0x2 PUSH2 0x2277 JUMP JUMPDEST PUSH2 0x1AD2 SWAP1 PUSH1 0x1 PUSH2 0x23B3 JUMP JUMPDEST SWAP1 POP JUMPDEST PUSH1 0x1 DUP2 GT ISZERO PUSH2 0x1B4A JUMPI PUSH16 0x181899199A1A9B1B9C1CB0B131B232B3 PUSH1 0x81 SHL DUP6 PUSH1 0xF AND PUSH1 0x10 DUP2 LT PUSH2 0x1B06 JUMPI PUSH2 0x1B06 PUSH2 0x1FE5 JUMP JUMPDEST BYTE PUSH1 0xF8 SHL DUP3 DUP3 DUP2 MLOAD DUP2 LT PUSH2 0x1B1C JUMPI PUSH2 0x1B1C PUSH2 0x1FE5 JUMP JUMPDEST PUSH1 0x20 ADD ADD SWAP1 PUSH1 0x1 PUSH1 0x1 PUSH1 0xF8 SHL SUB NOT AND SWAP1 DUP2 PUSH1 0x0 BYTE SWAP1 MSTORE8 POP PUSH1 0x4 SWAP5 SWAP1 SWAP5 SHR SWAP4 PUSH2 0x1B43 DUP2 PUSH2 0x246B JUMP JUMPDEST SWAP1 POP PUSH2 0x1AD5 JUMP JUMPDEST POP DUP4 ISZERO PUSH2 0x1B99 JUMPI PUSH1 0x40 MLOAD PUSH3 0x461BCD PUSH1 0xE5 SHL DUP2 MSTORE PUSH1 0x20 PUSH1 0x4 DUP3 ADD DUP2 SWAP1 MSTORE PUSH1 0x24 DUP3 ADD MSTORE PUSH32 0x537472696E67733A20686578206C656E67746820696E73756666696369656E74 PUSH1 0x44 DUP3 ADD MSTORE PUSH1 0x64 ADD PUSH2 0x4BA JUMP JUMPDEST SWAP4 SWAP3 POP POP POP JUMP JUMPDEST PUSH1 0x60 PUSH2 0x1BAF DUP5 DUP5 PUSH1 0x0 DUP6 PUSH2 0x1BB7 JUMP JUMPDEST SWAP5 SWAP4 POP POP POP POP JUMP JUMPDEST PUSH1 0x60 DUP3 SELFBALANCE LT ISZERO PUSH2 0x1C18 JUMPI PUSH1 0x40 MLOAD PUSH3 0x461BCD PUSH1 0xE5 SHL DUP2 MSTORE PUSH1 0x20 PUSH1 0x4 DUP3 ADD MSTORE PUSH1 0x26 PUSH1 0x24 DUP3 ADD MSTORE PUSH32 0x416464726573733A20696E73756666696369656E742062616C616E636520666F PUSH1 0x44 DUP3 ADD MSTORE PUSH6 0x1C8818D85B1B PUSH1 0xD2 SHL PUSH1 0x64 DUP3 ADD MSTORE PUSH1 0x84 ADD PUSH2 0x4BA JUMP JUMPDEST PUSH1 0x0 DUP1 DUP7 PUSH1 0x1 PUSH1 0x1 PUSH1 0xA0 SHL SUB AND DUP6 DUP8 PUSH1 0x40 MLOAD PUSH2 0x1C34 SWAP2 SWAP1 PUSH2 0x2482 JUMP JUMPDEST PUSH1 0x0 PUSH1 0x40 MLOAD DUP1 DUP4 SUB DUP2 DUP6 DUP8 GAS CALL SWAP3 POP POP POP RETURNDATASIZE DUP1 PUSH1 0x0 DUP2 EQ PUSH2 0x1C71 JUMPI PUSH1 0x40 MLOAD SWAP2 POP PUSH1 0x1F NOT PUSH1 0x3F RETURNDATASIZE ADD AND DUP3 ADD PUSH1 0x40 MSTORE RETURNDATASIZE DUP3 MSTORE RETURNDATASIZE PUSH1 0x0 PUSH1 0x20 DUP5 ADD RETURNDATACOPY PUSH2 0x1C76 JUMP JUMPDEST PUSH1 0x60 SWAP2 POP JUMPDEST POP SWAP2 POP SWAP2 POP PUSH2 0x1C87 DUP8 DUP4 DUP4 DUP8 PUSH2 0x1C92 JUMP JUMPDEST SWAP8 SWAP7 POP POP POP POP POP POP POP JUMP JUMPDEST PUSH1 0x60 DUP4 ISZERO PUSH2 0x1D01 JUMPI DUP3 MLOAD PUSH1 0x0 SUB PUSH2 0x1CFA JUMPI PUSH1 0x1 PUSH1 0x1 PUSH1 0xA0 SHL SUB DUP6 AND EXTCODESIZE PUSH2 0x1CFA JUMPI PUSH1 0x40 MLOAD PUSH3 0x461BCD PUSH1 0xE5 SHL DUP2 MSTORE PUSH1 0x20 PUSH1 0x4 DUP3 ADD MSTORE PUSH1 0x1D PUSH1 0x24 DUP3 ADD MSTORE PUSH32 0x416464726573733A2063616C6C20746F206E6F6E2D636F6E7472616374000000 PUSH1 0x44 DUP3 ADD MSTORE PUSH1 0x64 ADD PUSH2 0x4BA JUMP JUMPDEST POP DUP2 PUSH2 0x1BAF JUMP JUMPDEST PUSH2 0x1BAF DUP4 DUP4 DUP2 MLOAD ISZERO PUSH2 0x1D16 JUMPI DUP2 MLOAD DUP1 DUP4 PUSH1 0x20 ADD REVERT JUMPDEST DUP1 PUSH1 0x40 MLOAD PUSH3 0x461BCD PUSH1 0xE5 SHL DUP2 MSTORE PUSH1 0x4 ADD PUSH2 0x4BA SWAP2 SWAP1 PUSH2 0x243B JUMP JUMPDEST PUSH1 0x0 PUSH1 0x20 DUP3 DUP5 SUB SLT ISZERO PUSH2 0x1D42 JUMPI PUSH1 0x0 DUP1 REVERT JUMPDEST DUP2 CALLDATALOAD PUSH1 0x1 PUSH1 0x1 PUSH1 0xE0 SHL SUB NOT DUP2 AND DUP2 EQ PUSH2 0x1B99 JUMPI PUSH1 0x0 DUP1 REVERT JUMPDEST DUP1 CALLDATALOAD PUSH1 0x1 PUSH1 0x1 PUSH1 0xA0 SHL SUB DUP2 AND DUP2 EQ PUSH2 0x1D71 JUMPI PUSH1 0x0 DUP1 REVERT JUMPDEST SWAP2 SWAP1 POP JUMP JUMPDEST PUSH1 0x0 PUSH1 0x20 DUP3 DUP5 SUB SLT ISZERO PUSH2 0x1D88 JUMPI PUSH1 0x0 DUP1 REVERT JUMPDEST PUSH2 0x1B99 DUP3 PUSH2 0x1D5A JUMP JUMPDEST PUSH1 0x0 PUSH1 0x20 DUP3 DUP5 SUB SLT ISZERO PUSH2 0x1DA3 JUMPI PUSH1 0x0 DUP1 REVERT JUMPDEST POP CALLDATALOAD SWAP2 SWAP1 POP JUMP JUMPDEST PUSH1 0x0 DUP1 PUSH1 0x40 DUP4 DUP6 SUB SLT ISZERO PUSH2 0x1DBD JUMPI PUSH1 0x0 DUP1 REVERT JUMPDEST DUP3 CALLDATALOAD SWAP2 POP PUSH2 0x1DCD PUSH1 0x20 DUP5 ADD PUSH2 0x1D5A JUMP JUMPDEST SWAP1 POP SWAP3 POP SWAP3 SWAP1 POP JUMP JUMPDEST DUP1 ISZERO ISZERO DUP2 EQ PUSH2 0x732 JUMPI PUSH1 0x0 DUP1 REVERT JUMPDEST PUSH1 0x0 PUSH1 0x20 DUP3 DUP5 SUB SLT ISZERO PUSH2 0x1DF6 JUMPI PUSH1 0x0 DUP1 REVERT JUMPDEST DUP2 CALLDATALOAD PUSH2 0x1B99 DUP2 PUSH2 0x1DD6 JUMP JUMPDEST PUSH1 0x0 DUP1 DUP4 PUSH1 0x1F DUP5 ADD SLT PUSH2 0x1E13 JUMPI PUSH1 0x0 DUP1 REVERT JUMPDEST POP DUP2 CALLDATALOAD PUSH8 0xFFFFFFFFFFFFFFFF DUP2 GT ISZERO PUSH2 0x1E2B JUMPI PUSH1 0x0 DUP1 REVERT JUMPDEST PUSH1 0x20 DUP4 ADD SWAP2 POP DUP4 PUSH1 0x20 DUP3 DUP6 ADD ADD GT ISZERO PUSH2 0x1E43 JUMPI PUSH1 0x0 DUP1 REVERT JUMPDEST SWAP3 POP SWAP3 SWAP1 POP JUMP JUMPDEST PUSH1 0x0 DUP1 PUSH1 0x20 DUP4 DUP6 SUB SLT ISZERO PUSH2 0x1E5D JUMPI PUSH1 0x0 DUP1 REVERT JUMPDEST DUP3 CALLDATALOAD PUSH8 0xFFFFFFFFFFFFFFFF DUP2 GT ISZERO PUSH2 0x1E74 JUMPI PUSH1 0x0 DUP1 REVERT JUMPDEST PUSH2 0x1E80 DUP6 DUP3 DUP7 ADD PUSH2 0x1E01 JUMP JUMPDEST SWAP1 SWAP7 SWAP1 SWAP6 POP SWAP4 POP POP POP POP JUMP JUMPDEST PUSH1 0x0 DUP1 PUSH1 0x0 DUP1 PUSH1 0x0 PUSH1 0x80 DUP7 DUP9 SUB SLT ISZERO PUSH2 0x1EA4 JUMPI PUSH1 0x0 DUP1 REVERT JUMPDEST DUP6 CALLDATALOAD SWAP5 POP PUSH1 0x20 DUP7 ADD CALLDATALOAD SWAP4 POP PUSH1 0x40 DUP7 ADD CALLDATALOAD SWAP3 POP PUSH1 0x60 DUP7 ADD CALLDATALOAD PUSH8 0xFFFFFFFFFFFFFFFF DUP2 GT ISZERO PUSH2 0x1ED0 JUMPI PUSH1 0x0 DUP1 REVERT JUMPDEST PUSH2 0x1EDC DUP9 DUP3 DUP10 ADD PUSH2 0x1E01 JUMP JUMPDEST SWAP7 SWAP10 SWAP6 SWAP9 POP SWAP4 SWAP7 POP SWAP3 SWAP5 SWAP4 SWAP3 POP POP POP JUMP JUMPDEST PUSH1 0x0 JUMPDEST DUP4 DUP2 LT ISZERO PUSH2 0x1F08 JUMPI DUP2 DUP2 ADD MLOAD DUP4 DUP3 ADD MSTORE PUSH1 0x20 ADD PUSH2 0x1EF0 JUMP JUMPDEST POP POP PUSH1 0x0 SWAP2 ADD MSTORE JUMP JUMPDEST PUSH1 0x0 DUP2 MLOAD DUP1 DUP5 MSTORE PUSH2 0x1F29 DUP2 PUSH1 0x20 DUP7 ADD PUSH1 0x20 DUP7 ADD PUSH2 0x1EED JUMP JUMPDEST PUSH1 0x1F ADD PUSH1 0x1F NOT AND SWAP3 SWAP1 SWAP3 ADD PUSH1 0x20 ADD SWAP3 SWAP2 POP POP JUMP JUMPDEST PUSH4 0x4E487B71 PUSH1 0xE0 SHL PUSH1 0x0 MSTORE PUSH1 0x21 PUSH1 0x4 MSTORE PUSH1 0x24 PUSH1 0x0 REVERT JUMPDEST DUP6 DUP2 MSTORE DUP5 PUSH1 0x20 DUP3 ADD MSTORE DUP4 PUSH1 0x40 DUP3 ADD MSTORE PUSH1 0xA0 PUSH1 0x60 DUP3 ADD MSTORE PUSH1 0x0 PUSH2 0x1F78 PUSH1 0xA0 DUP4 ADD DUP6 PUSH2 0x1F11 JUMP JUMPDEST SWAP1 POP PUSH1 0x8 DUP4 LT PUSH2 0x1F98 JUMPI PUSH4 0x4E487B71 PUSH1 0xE0 SHL PUSH1 0x0 MSTORE PUSH1 0x21 PUSH1 0x4 MSTORE PUSH1 0x24 PUSH1 0x0 REVERT JUMPDEST DUP3 PUSH1 0x80 DUP4 ADD MSTORE SWAP7 SWAP6 POP POP POP POP POP POP JUMP JUMPDEST PUSH1 0x0 DUP1 PUSH1 0x40 DUP4 DUP6 SUB SLT ISZERO PUSH2 0x1FBB JUMPI PUSH1 0x0 DUP1 REVERT JUMPDEST PUSH2 0x1FC4 DUP4 PUSH2 0x1D5A JUMP JUMPDEST SWAP2 POP PUSH1 0x20 DUP4 ADD CALLDATALOAD PUSH1 0xFF DUP2 AND DUP2 EQ PUSH2 0x1FDA JUMPI PUSH1 0x0 DUP1 REVERT JUMPDEST DUP1 SWAP2 POP POP SWAP3 POP SWAP3 SWAP1 POP JUMP JUMPDEST PUSH4 0x4E487B71 PUSH1 0xE0 SHL PUSH1 0x0 MSTORE PUSH1 0x32 PUSH1 0x4 MSTORE PUSH1 0x24 PUSH1 0x0 REVERT JUMPDEST DUP1 MLOAD PUSH10 0xFFFFFFFFFFFFFFFFFFFF DUP2 AND DUP2 EQ PUSH2 0x1D71 JUMPI PUSH1 0x0 DUP1 REVERT JUMPDEST PUSH1 0x0 DUP1 PUSH1 0x0 DUP1 PUSH1 0x0 PUSH1 0xA0 DUP7 DUP9 SUB SLT ISZERO PUSH2 0x202D JUMPI PUSH1 0x0 DUP1 REVERT JUMPDEST PUSH2 0x2036 DUP7 PUSH2 0x1FFB JUMP JUMPDEST SWAP5 POP PUSH1 0x20 DUP7 ADD MLOAD SWAP4 POP PUSH1 0x40 DUP7 ADD MLOAD SWAP3 POP PUSH1 0x60 DUP7 ADD MLOAD SWAP2 POP PUSH2 0x2059 PUSH1 0x80 DUP8 ADD PUSH2 0x1FFB JUMP JUMPDEST SWAP1 POP SWAP3 SWAP6 POP SWAP3 SWAP6 SWAP1 SWAP4 POP JUMP JUMPDEST DUP2 DUP4 MSTORE DUP2 DUP2 PUSH1 0x20 DUP6 ADD CALLDATACOPY POP PUSH1 0x0 DUP3 DUP3 ADD PUSH1 0x20 SWAP1 DUP2 ADD SWAP2 SWAP1 SWAP2 MSTORE PUSH1 0x1F SWAP1 SWAP2 ADD PUSH1 0x1F NOT AND SWAP1 SWAP2 ADD ADD SWAP1 JUMP JUMPDEST PUSH1 0x20 DUP2 MSTORE PUSH1 0x0 PUSH2 0x1BAF PUSH1 0x20 DUP4 ADD DUP5 DUP7 PUSH2 0x2065 JUMP JUMPDEST PUSH4 0x4E487B71 PUSH1 0xE0 SHL PUSH1 0x0 MSTORE PUSH1 0x41 PUSH1 0x4 MSTORE PUSH1 0x24 PUSH1 0x0 REVERT JUMPDEST PUSH1 0x1 DUP2 DUP2 SHR SWAP1 DUP3 AND DUP1 PUSH2 0x20CC JUMPI PUSH1 0x7F DUP3 AND SWAP2 POP JUMPDEST PUSH1 0x20 DUP3 LT DUP2 SUB PUSH2 0x20EC JUMPI PUSH4 0x4E487B71 PUSH1 0xE0 SHL PUSH1 0x0 MSTORE PUSH1 0x22 PUSH1 0x4 MSTORE PUSH1 0x24 PUSH1 0x0 REVERT JUMPDEST POP SWAP2 SWAP1 POP JUMP JUMPDEST PUSH1 0x1F DUP3 GT ISZERO PUSH2 0x449 JUMPI PUSH1 0x0 DUP2 DUP2 MSTORE PUSH1 0x20 DUP2 KECCAK256 PUSH1 0x1F DUP6 ADD PUSH1 0x5 SHR DUP2 ADD PUSH1 0x20 DUP7 LT ISZERO PUSH2 0x2119 JUMPI POP DUP1 JUMPDEST PUSH1 0x1F DUP6 ADD PUSH1 0x5 SHR DUP3 ADD SWAP2 POP JUMPDEST DUP2 DUP2 LT ISZERO PUSH2 0x2138 JUMPI DUP3 DUP2 SSTORE PUSH1 0x1 ADD PUSH2 0x2125 JUMP JUMPDEST POP POP POP POP POP POP JUMP JUMPDEST DUP2 MLOAD PUSH8 0xFFFFFFFFFFFFFFFF DUP2 GT ISZERO PUSH2 0x215A JUMPI PUSH2 0x215A PUSH2 0x20A2 JUMP JUMPDEST PUSH2 0x216E DUP2 PUSH2 0x2168 DUP5 SLOAD PUSH2 0x20B8 JUMP JUMPDEST DUP5 PUSH2 0x20F2 JUMP JUMPDEST PUSH1 0x20 DUP1 PUSH1 0x1F DUP4 GT PUSH1 0x1 DUP2 EQ PUSH2 0x21A3 JUMPI PUSH1 0x0 DUP5 ISZERO PUSH2 0x218B JUMPI POP DUP6 DUP4 ADD MLOAD JUMPDEST PUSH1 0x0 NOT PUSH1 0x3 DUP7 SWAP1 SHL SHR NOT AND PUSH1 0x1 DUP6 SWAP1 SHL OR DUP6 SSTORE PUSH2 0x2138 JUMP JUMPDEST PUSH1 0x0 DUP6 DUP2 MSTORE PUSH1 0x20 DUP2 KECCAK256 PUSH1 0x1F NOT DUP7 AND SWAP2 JUMPDEST DUP3 DUP2 LT ISZERO PUSH2 0x21D2 JUMPI DUP9 DUP7 ADD MLOAD DUP3 SSTORE SWAP5 DUP5 ADD SWAP5 PUSH1 0x1 SWAP1 SWAP2 ADD SWAP1 DUP5 ADD PUSH2 0x21B3 JUMP JUMPDEST POP DUP6 DUP3 LT ISZERO PUSH2 0x21F0 JUMPI DUP8 DUP6 ADD MLOAD PUSH1 0x0 NOT PUSH1 0x3 DUP9 SWAP1 SHL PUSH1 0xF8 AND SHR NOT AND DUP2 SSTORE JUMPDEST POP POP POP POP POP PUSH1 0x1 SWAP1 DUP2 SHL ADD SWAP1 SSTORE POP JUMP JUMPDEST DUP6 DUP2 MSTORE DUP5 PUSH1 0x20 DUP3 ADD MSTORE DUP4 PUSH1 0x40 DUP3 ADD MSTORE PUSH1 0x80 PUSH1 0x60 DUP3 ADD MSTORE PUSH1 0x0 PUSH2 0x1C87 PUSH1 0x80 DUP4 ADD DUP5 DUP7 PUSH2 0x2065 JUMP JUMPDEST PUSH1 0x40 DUP2 MSTORE PUSH1 0x10 PUSH1 0x40 DUP3 ADD MSTORE PUSH16 0x1059DC99595B595B9D10DC99585D1959 PUSH1 0x82 SHL PUSH1 0x60 DUP3 ADD MSTORE PUSH1 0x80 PUSH1 0x20 DUP3 ADD MSTORE PUSH1 0x0 PUSH2 0x1BAF PUSH1 0x80 DUP4 ADD DUP5 DUP7 PUSH2 0x2065 JUMP JUMPDEST PUSH4 0x4E487B71 PUSH1 0xE0 SHL PUSH1 0x0 MSTORE PUSH1 0x11 PUSH1 0x4 MSTORE PUSH1 0x24 PUSH1 0x0 REVERT JUMPDEST DUP1 DUP3 MUL DUP2 ISZERO DUP3 DUP3 DIV DUP5 EQ OR PUSH2 0x41E JUMPI PUSH2 0x41E PUSH2 0x2261 JUMP JUMPDEST PUSH1 0x40 DUP2 MSTORE PUSH1 0x10 PUSH1 0x40 DUP3 ADD MSTORE PUSH16 0x14185E5B595B9D10DBDB999A5C9B5959 PUSH1 0x82 SHL PUSH1 0x60 DUP3 ADD MSTORE PUSH1 0x80 PUSH1 0x20 DUP3 ADD MSTORE PUSH1 0x0 PUSH2 0x1B99 PUSH1 0x80 DUP4 ADD DUP5 PUSH2 0x1F11 JUMP JUMPDEST DUP2 DUP4 DUP3 CALLDATACOPY PUSH1 0x0 SWAP2 ADD SWAP1 DUP2 MSTORE SWAP2 SWAP1 POP JUMP JUMPDEST PUSH1 0x40 DUP2 MSTORE PUSH1 0xF PUSH1 0x40 DUP3 ADD MSTORE PUSH15 0x111A5CDC1D5D1954995CDBDB1D9959 PUSH1 0x8A SHL PUSH1 0x60 DUP3 ADD MSTORE PUSH1 0x80 PUSH1 0x20 DUP3 ADD MSTORE PUSH1 0x0 PUSH2 0x1BAF PUSH1 0x80 DUP4 ADD DUP5 DUP7 PUSH2 0x2065 JUMP JUMPDEST PUSH1 0x40 DUP2 MSTORE PUSH1 0xD PUSH1 0x40 DUP3 ADD MSTORE PUSH13 0x14DD5C1C1B1A595C94985D1959 PUSH1 0x9A SHL PUSH1 0x60 DUP3 ADD MSTORE PUSH1 0x80 PUSH1 0x20 DUP3 ADD MSTORE PUSH1 0x0 PUSH2 0x1B99 PUSH1 0x80 DUP4 ADD DUP5 PUSH2 0x1F11 JUMP JUMPDEST PUSH1 0x0 PUSH1 0x1 DUP3 ADD PUSH2 0x235B JUMPI PUSH2 0x235B PUSH2 0x2261 JUMP JUMPDEST POP PUSH1 0x1 ADD SWAP1 JUMP JUMPDEST PUSH4 0x4E487B71 PUSH1 0xE0 SHL PUSH1 0x0 MSTORE PUSH1 0x12 PUSH1 0x4 MSTORE PUSH1 0x24 PUSH1 0x0 REVERT JUMPDEST PUSH1 0x0 DUP3 PUSH2 0x2387 JUMPI PUSH2 0x2387 PUSH2 0x2362 JUMP JUMPDEST POP DIV SWAP1 JUMP JUMPDEST DUP2 DUP2 SUB DUP2 DUP2 GT ISZERO PUSH2 0x41E JUMPI PUSH2 0x41E PUSH2 0x2261 JUMP JUMPDEST PUSH1 0x0 DUP3 PUSH2 0x23AE JUMPI PUSH2 0x23AE PUSH2 0x2362 JUMP JUMPDEST POP MOD SWAP1 JUMP JUMPDEST DUP1 DUP3 ADD DUP1 DUP3 GT ISZERO PUSH2 0x41E JUMPI PUSH2 0x41E PUSH2 0x2261 JUMP JUMPDEST PUSH32 0x416363657373436F6E74726F6C3A206163636F756E7420000000000000000000 DUP2 MSTORE PUSH1 0x0 DUP4 MLOAD PUSH2 0x23FE DUP2 PUSH1 0x17 DUP6 ADD PUSH1 0x20 DUP9 ADD PUSH2 0x1EED JUMP JUMPDEST PUSH17 0x1034B99036B4B9B9B4B733903937B6329 PUSH1 0x7D SHL PUSH1 0x17 SWAP2 DUP5 ADD SWAP2 DUP3 ADD MSTORE DUP4 MLOAD PUSH2 0x242F DUP2 PUSH1 0x28 DUP5 ADD PUSH1 0x20 DUP9 ADD PUSH2 0x1EED JUMP JUMPDEST ADD PUSH1 0x28 ADD SWAP5 SWAP4 POP POP POP POP JUMP JUMPDEST PUSH1 0x20 DUP2 MSTORE PUSH1 0x0 PUSH2 0x1B99 PUSH1 0x20 DUP4 ADD DUP5 PUSH2 0x1F11 JUMP JUMPDEST PUSH1 0x0 PUSH1 0x20 DUP3 DUP5 SUB SLT ISZERO PUSH2 0x2460 JUMPI PUSH1 0x0 DUP1 REVERT JUMPDEST DUP2 MLOAD PUSH2 0x1B99 DUP2 PUSH2 0x1DD6 JUMP JUMPDEST PUSH1 0x0 DUP2 PUSH2 0x247A JUMPI PUSH2 0x247A PUSH2 0x2261 JUMP JUMPDEST POP PUSH1 0x0 NOT ADD SWAP1 JUMP JUMPDEST PUSH1 0x0 DUP3 MLOAD PUSH2 0x2494 DUP2 DUP5 PUSH1 0x20 DUP8 ADD PUSH2 0x1EED JUMP JUMPDEST SWAP2 SWAP1 SWAP2 ADD SWAP3 SWAP2 POP POP JUMP INVALID 0xBB CALLDATASIZE JUMPI DUP3 EQ 0x26 0x2F 0x27 EXTCODECOPY DUP3 0xF8 0xBA STATICCALL DUP1 LOG0 GAS 0xBF STATICCALL MOD SWAP7 TIMESTAMP DUP9 0xAB 0xC4 0xA6 OR SWAP11 SWAP5 DUP16 SWAP9 STOP PUSH31 0x99644E2A282614041FB71FAAA77EBCBAAFC5EB939A38B7E1B52613B2DFF6F4 0x25 LOG2 PUSH5 0x6970667358 0x22 SLT KECCAK256 0xDC KECCAK256 PUSH16 0x26463BEFF3ACE649FCE332939B800F1D BASEFEE LT SSTORE CALLDATACOPY STATICCALL LOG2 SGT 0x4B SWAP7 ADDMOD CALL JUMPDEST 0xF9 PUSH5 0x736F6C6343 STOP ADDMOD EQ STOP CALLER "},"methodIdentifiers":{"ARBITRATOR_ROLE()":"9cea0787","DEFAULT_ADMIN_ROLE()":"a217fddf","ORACLE_ROLE()":"07e2cea5","acceptAgreement()":"dac96d4a","agreement()":"7db3a946","buyer()":"7150d8ae","confirmPayment(uint256)":"876ca09f","createAgreement(uint256,uint256,uint256,string)":"7026979e","dispatchOrder()":"bc61c920","escrowAmount()":"47a7846f","getOracleData()":"6481c5e6","getRoleAdmin(bytes32)":"248a9ca3","grantRole(bytes32,address)":"2f2ff15d","hasRole(bytes32,address)":"91d14854","oracleAddress()":"a89ae4ba","paymentToken()":"3013ce29","rateSupplier(address,uint8)":"eebf2785","renounceRole(bytes32,address)":"36568abe","resolveDispute(string)":"8f2238ba","revokeRole(bytes32,address)":"d547741f","startAgreement()":"f0f5a5b1","submitZKProof(bytes)":"66d6d4d2","supplierList(uint256)":"a58f6650","suppliers(address)":"16dc15fe","supportsInterface(bytes4)":"01ffc9a7","updateDeliveryStatus(bool)":"45ee9796"}}}}}