{
  "_format": "hh-sol-artifact-1",
  "contractName": "SupplierAgreement",
  "sourceName": "contracts/SupplierAgreement.sol",
  "abi": [
    {
      "inputs": [
        {
          "internalType": "address",
          "name": "_oracle",
          "type": "address"
        },
        {
          "internalType": "address",
          "name": "_arbitrator",
          "type": "address"
        },
        {
          "internalType": "address",
          "name": "_oracleAddress",
          "type": "address"
        },
        {
          "internalType": "address",
          "name": "_tokenAddress",
          "type": "address"
        }
      ],
      "stateMutability": "nonpayable",
      "type": "constructor"
    },
    {
      "anonymous": false,
      "inputs": [
        {
          "indexed": false,
          "internalType": "uint256",
          "name": "quantity",
          "type": "uint256"
        },
        {
          "indexed": false,
          "internalType": "uint256",
          "name": "price",
          "type": "uint256"
        },
        {
          "indexed": false,
          "internalType": "uint256",
          "name": "deadline",
          "type": "uint256"
        },
        {
          "indexed": false,
          "internalType": "string",
          "name": "ipfsHash",
          "type": "string"
        }
      ],
      "name": "AgreementCreated",
      "type": "event"
    },
    {
      "anonymous": false,
      "inputs": [
        {
          "indexed": true,
          "internalType": "enum SupplierAgreement.AgreementState",
          "name": "newState",
          "type": "uint8"
        }
      ],
      "name": "AgreementStatusChanged",
      "type": "event"
    },
    {
      "anonymous": false,
      "inputs": [
        {
          "indexed": false,
          "internalType": "bool",
          "name": "success",
          "type": "bool"
        }
      ],
      "name": "DeliveryUpdated",
      "type": "event"
    },
    {
      "anonymous": false,
      "inputs": [
        {
          "indexed": false,
          "internalType": "string",
          "name": "decision",
          "type": "string"
        }
      ],
      "name": "DisputeResolved",
      "type": "event"
    },
    {
      "anonymous": false,
      "inputs": [
        {
          "indexed": false,
          "internalType": "string",
          "name": "eventType",
          "type": "string"
        },
        {
          "indexed": false,
          "internalType": "string",
          "name": "data",
          "type": "string"
        }
      ],
      "name": "ERPDataUpdate",
      "type": "event"
    },
    {
      "anonymous": false,
      "inputs": [
        {
          "indexed": true,
          "internalType": "address",
          "name": "supplier",
          "type": "address"
        }
      ],
      "name": "OrderDispatched",
      "type": "event"
    },
    {
      "anonymous": false,
      "inputs": [
        {
          "indexed": true,
          "internalType": "address",
          "name": "buyer",
          "type": "address"
        },
        {
          "indexed": false,
          "internalType": "uint256",
          "name": "amount",
          "type": "uint256"
        }
      ],
      "name": "PaymentConfirmed",
      "type": "event"
    },
    {
      "anonymous": false,
      "inputs": [
        {
          "indexed": true,
          "internalType": "bytes32",
          "name": "role",
          "type": "bytes32"
        },
        {
          "indexed": true,
          "internalType": "bytes32",
          "name": "previousAdminRole",
          "type": "bytes32"
        },
        {
          "indexed": true,
          "internalType": "bytes32",
          "name": "newAdminRole",
          "type": "bytes32"
        }
      ],
      "name": "RoleAdminChanged",
      "type": "event"
    },
    {
      "anonymous": false,
      "inputs": [
        {
          "indexed": true,
          "internalType": "bytes32",
          "name": "role",
          "type": "bytes32"
        },
        {
          "indexed": true,
          "internalType": "address",
          "name": "account",
          "type": "address"
        },
        {
          "indexed": true,
          "internalType": "address",
          "name": "sender",
          "type": "address"
        }
      ],
      "name": "RoleGranted",
      "type": "event"
    },
    {
      "anonymous": false,
      "inputs": [
        {
          "indexed": true,
          "internalType": "bytes32",
          "name": "role",
          "type": "bytes32"
        },
        {
          "indexed": true,
          "internalType": "address",
          "name": "account",
          "type": "address"
        },
        {
          "indexed": true,
          "internalType": "address",
          "name": "sender",
          "type": "address"
        }
      ],
      "name": "RoleRevoked",
      "type": "event"
    },
    {
      "anonymous": false,
      "inputs": [
        {
          "indexed": true,
          "internalType": "address",
          "name": "supplier",
          "type": "address"
        },
        {
          "indexed": false,
          "internalType": "uint8",
          "name": "rating",
          "type": "uint8"
        }
      ],
      "name": "SupplierRated",
      "type": "event"
    },
    {
      "anonymous": false,
      "inputs": [
        {
          "indexed": true,
          "internalType": "address",
          "name": "supplier",
          "type": "address"
        },
        {
          "indexed": false,
          "internalType": "uint256",
          "name": "carbonFootprint",
          "type": "uint256"
        },
        {
          "indexed": false,
          "internalType": "uint256",
          "name": "energyConsumption",
          "type": "uint256"
        },
        {
          "indexed": false,
          "internalType": "uint8",
          "name": "recycledMaterialUsage",
          "type": "uint8"
        }
      ],
      "name": "SustainabilityMetricsRecorded",
      "type": "event"
    },
    {
      "anonymous": false,
      "inputs": [
        {
          "indexed": true,
          "internalType": "address",
          "name": "supplier",
          "type": "address"
        },
        {
          "indexed": false,
          "internalType": "bytes",
          "name": "zkProof",
          "type": "bytes"
        }
      ],
      "name": "ZKProofSubmitted",
      "type": "event"
    },
    {
      "inputs": [],
      "name": "ARBITRATOR_ROLE",
      "outputs": [
        {
          "internalType": "bytes32",
          "name": "",
          "type": "bytes32"
        }
      ],
      "stateMutability": "view",
      "type": "function"
    },
    {
      "inputs": [],
      "name": "DEFAULT_ADMIN_ROLE",
      "outputs": [
        {
          "internalType": "bytes32",
          "name": "",
          "type": "bytes32"
        }
      ],
      "stateMutability": "view",
      "type": "function"
    },
    {
      "inputs": [],
      "name": "ORACLE_ROLE",
      "outputs": [
        {
          "internalType": "bytes32",
          "name": "",
          "type": "bytes32"
        }
      ],
      "stateMutability": "view",
      "type": "function"
    },
    {
      "inputs": [],
      "name": "acceptAgreement",
      "outputs": [],
      "stateMutability": "nonpayable",
      "type": "function"
    },
    {
      "inputs": [],
      "name": "agreement",
      "outputs": [
        {
          "internalType": "uint256",
          "name": "quantity",
          "type": "uint256"
        },
        {
          "internalType": "uint256",
          "name": "price",
          "type": "uint256"
        },
        {
          "internalType": "uint256",
          "name": "deadline",
          "type": "uint256"
        },
        {
          "internalType": "string",
          "name": "ipfsHash",
          "type": "string"
        },
        {
          "internalType": "enum SupplierAgreement.AgreementState",
          "name": "state",
          "type": "uint8"
        }
      ],
      "stateMutability": "view",
      "type": "function"
    },
    {
      "inputs": [],
      "name": "buyer",
      "outputs": [
        {
          "internalType": "address",
          "name": "",
          "type": "address"
        }
      ],
      "stateMutability": "view",
      "type": "function"
    },
    {
      "inputs": [
        {
          "internalType": "uint256",
          "name": "_paymentAmount",
          "type": "uint256"
        }
      ],
      "name": "confirmPayment",
      "outputs": [],
      "stateMutability": "nonpayable",
      "type": "function"
    },
    {
      "inputs": [
        {
          "internalType": "uint256",
          "name": "_quantity",
          "type": "uint256"
        },
        {
          "internalType": "uint256",
          "name": "_price",
          "type": "uint256"
        },
        {
          "internalType": "uint256",
          "name": "_deadline",
          "type": "uint256"
        },
        {
          "internalType": "string",
          "name": "_ipfsHash",
          "type": "string"
        }
      ],
      "name": "createAgreement",
      "outputs": [],
      "stateMutability": "nonpayable",
      "type": "function"
    },
    {
      "inputs": [],
      "name": "dispatchOrder",
      "outputs": [],
      "stateMutability": "nonpayable",
      "type": "function"
    },
    {
      "inputs": [],
      "name": "escrowAmount",
      "outputs": [
        {
          "internalType": "uint256",
          "name": "",
          "type": "uint256"
        }
      ],
      "stateMutability": "view",
      "type": "function"
    },
    {
      "inputs": [],
      "name": "getOracleData",
      "outputs": [
        {
          "internalType": "int256",
          "name": "answer",
          "type": "int256"
        }
      ],
      "stateMutability": "view",
      "type": "function"
    },
    {
      "inputs": [
        {
          "internalType": "bytes32",
          "name": "role",
          "type": "bytes32"
        }
      ],
      "name": "getRoleAdmin",
      "outputs": [
        {
          "internalType": "bytes32",
          "name": "",
          "type": "bytes32"
        }
      ],
      "stateMutability": "view",
      "type": "function"
    },
    {
      "inputs": [
        {
          "internalType": "bytes32",
          "name": "role",
          "type": "bytes32"
        },
        {
          "internalType": "address",
          "name": "account",
          "type": "address"
        }
      ],
      "name": "grantRole",
      "outputs": [],
      "stateMutability": "nonpayable",
      "type": "function"
    },
    {
      "inputs": [
        {
          "internalType": "bytes32",
          "name": "role",
          "type": "bytes32"
        },
        {
          "internalType": "address",
          "name": "account",
          "type": "address"
        }
      ],
      "name": "hasRole",
      "outputs": [
        {
          "internalType": "bool",
          "name": "",
          "type": "bool"
        }
      ],
      "stateMutability": "view",
      "type": "function"
    },
    {
      "inputs": [],
      "name": "oracleAddress",
      "outputs": [
        {
          "internalType": "address",
          "name": "",
          "type": "address"
        }
      ],
      "stateMutability": "view",
      "type": "function"
    },
    {
      "inputs": [],
      "name": "paymentToken",
      "outputs": [
        {
          "internalType": "contract IERC20",
          "name": "",
          "type": "address"
        }
      ],
      "stateMutability": "view",
      "type": "function"
    },
    {
      "inputs": [
        {
          "internalType": "address",
          "name": "_supplier",
          "type": "address"
        },
        {
          "internalType": "uint8",
          "name": "_rating",
          "type": "uint8"
        }
      ],
      "name": "rateSupplier",
      "outputs": [],
      "stateMutability": "nonpayable",
      "type": "function"
    },
    {
      "inputs": [
        {
          "internalType": "bytes32",
          "name": "role",
          "type": "bytes32"
        },
        {
          "internalType": "address",
          "name": "account",
          "type": "address"
        }
      ],
      "name": "renounceRole",
      "outputs": [],
      "stateMutability": "nonpayable",
      "type": "function"
    },
    {
      "inputs": [
        {
          "internalType": "string",
          "name": "_decision",
          "type": "string"
        }
      ],
      "name": "resolveDispute",
      "outputs": [],
      "stateMutability": "nonpayable",
      "type": "function"
    },
    {
      "inputs": [
        {
          "internalType": "bytes32",
          "name": "role",
          "type": "bytes32"
        },
        {
          "internalType": "address",
          "name": "account",
          "type": "address"
        }
      ],
      "name": "revokeRole",
      "outputs": [],
      "stateMutability": "nonpayable",
      "type": "function"
    },
    {
      "inputs": [],
      "name": "startAgreement",
      "outputs": [],
      "stateMutability": "nonpayable",
      "type": "function"
    },
    {
      "inputs": [
        {
          "internalType": "bytes",
          "name": "zkProof",
          "type": "bytes"
        }
      ],
      "name": "submitZKProof",
      "outputs": [],
      "stateMutability": "nonpayable",
      "type": "function"
    },
    {
      "inputs": [
        {
          "internalType": "uint256",
          "name": "",
          "type": "uint256"
        }
      ],
      "name": "supplierList",
      "outputs": [
        {
          "internalType": "address",
          "name": "",
          "type": "address"
        }
      ],
      "stateMutability": "view",
      "type": "function"
    },
    {
      "inputs": [
        {
          "internalType": "address",
          "name": "",
          "type": "address"
        }
      ],
      "name": "suppliers",
      "outputs": [
        {
          "internalType": "bool",
          "name": "accepted",
          "type": "bool"
        },
        {
          "internalType": "uint8",
          "name": "rating",
          "type": "uint8"
        }
      ],
      "stateMutability": "view",
      "type": "function"
    },
    {
      "inputs": [
        {
          "internalType": "bytes4",
          "name": "interfaceId",
          "type": "bytes4"
        }
      ],
      "name": "supportsInterface",
      "outputs": [
        {
          "internalType": "bool",
          "name": "",
          "type": "bool"
        }
      ],
      "stateMutability": "view",
      "type": "function"
    },
    {
      "inputs": [
        {
          "internalType": "bool",
          "name": "_deliverySuccessful",
          "type": "bool"
        }
      ],
      "name": "updateDeliveryStatus",
      "outputs": [],
      "stateMutability": "nonpayable",
      "type": "function"
    }
  ],
  "bytecode": "0x60806040523480156200001157600080fd5b506040516200271c3803806200271c83398101604081905262000034916200019b565b6001805562000045600033620000dd565b620000717f68e79a7bf1e0bc45d0a330c573bc367f9cf464fd326078812f301165fbda4ef185620000dd565b6200009d7f16ceee8289685dd2a02b9c8ae81d2df373176ce53519e6284e2a2950d6546ffa84620000dd565b600780546001600160a01b03199081163317909155600a80546001600160a01b03948516908316179055600b805492909316911617905550620001f89050565b6000828152602081815260408083206001600160a01b038516845290915290205460ff166200017a576000828152602081815260408083206001600160a01b03851684529091529020805460ff19166001179055620001393390565b6001600160a01b0316816001600160a01b0316837f2f8788117e7eff1d82e926ec794901d17c78024a50270940304540a733656f0d60405160405180910390a45b5050565b80516001600160a01b03811681146200019657600080fd5b919050565b60008060008060808587031215620001b257600080fd5b620001bd856200017e565b9350620001cd602086016200017e565b9250620001dd604086016200017e565b9150620001ed606086016200017e565b905092959194509250565b61251480620002086000396000f3fe608060405234801561001057600080fd5b506004361061018e5760003560e01c80637db3a946116100de578063a58f665011610097578063d547741f11610071578063d547741f146103b7578063dac96d4a146103ca578063eebf2785146103d2578063f0f5a5b1146103e557600080fd5b8063a58f665014610389578063a89ae4ba1461039c578063bc61c920146103af57600080fd5b80637db3a94614610308578063876ca09f146103215780638f2238ba1461033457806391d14854146103475780639cea07871461035a578063a217fddf1461038157600080fd5b806336568abe1161014b5780636481c5e6116101255780636481c5e6146102c757806366d6d4d2146102cf5780637026979e146102e25780637150d8ae146102f557600080fd5b806336568abe1461029857806345ee9796146102ab57806347a7846f146102be57600080fd5b806301ffc9a71461019357806307e2cea5146101bb57806316dc15fe146101f0578063248a9ca3146102355780632f2ff15d146102585780633013ce291461026d575b600080fd5b6101a66101a1366004611d30565b6103ed565b60405190151581526020015b60405180910390f35b6101e27f68e79a7bf1e0bc45d0a330c573bc367f9cf464fd326078812f301165fbda4ef181565b6040519081526020016101b2565b61021c6101fe366004611d76565b60086020526000908152604090205460ff8082169161010090041682565b60408051921515835260ff9091166020830152016101b2565b6101e2610243366004611d91565b60009081526020819052604090206001015490565b61026b610266366004611daa565b610424565b005b600b54610280906001600160a01b031681565b6040516001600160a01b0390911681526020016101b2565b61026b6102a6366004611daa565b61044e565b61026b6102b9366004611de4565b6104d1565b6101e2600c5481565b6101e2610735565b61026b6102dd366004611e4a565b6107ba565b61026b6102f0366004611e8c565b6108cd565b600754610280906001600160a01b031681565b610310610b4a565b6040516101b2959493929190611f53565b61026b61032f366004611d91565b610bf4565b61026b610342366004611e4a565b610ded565b6101a6610355366004611daa565b61105b565b6101e27f16ceee8289685dd2a02b9c8ae81d2df373176ce53519e6284e2a2950d6546ffa81565b6101e2600081565b610280610397366004611d91565b611084565b600a54610280906001600160a01b031681565b61026b6110ae565b61026b6103c5366004611daa565b61122e565b61026b611253565b61026b6103e0366004611fa8565b61133a565b61026b6114e6565b60006001600160e01b03198216637965db0b60e01b148061041e57506301ffc9a760e01b6001600160e01b03198316145b92915050565b60008281526020819052604090206001015461043f816115c2565b61044983836115cc565b505050565b6001600160a01b03811633146104c35760405162461bcd60e51b815260206004820152602f60248201527f416363657373436f6e74726f6c3a2063616e206f6e6c792072656e6f756e636560448201526e103937b632b9903337b91039b2b63360891b60648201526084015b60405180910390fd5b6104cd8282611650565b5050565b6104d96116b5565b7f68e79a7bf1e0bc45d0a330c573bc367f9cf464fd326078812f301165fbda4ef1610503816115c2565b600460065460ff16600781111561051c5761051c611f3d565b146105695760405162461bcd60e51b815260206004820181905260248201527fc38974617420696e76616c69646520706f7572206c61206c6976726169736f6e60448201526064016104ba565b60405182151581527f0677dd7453fc7f58c3083fbed22128d2ae8f653216f78f37a5d85f9278376c779060200160405180910390a18115610694576006805460ff19166005179055600954156105f5576105f560096000815481106105d0576105d0611fe5565b600091825260209091200154600c54600b546001600160a01b0390811692169061170e565b6000600c5560056040516000805160206124bf83398151915290600090a260008051602061249f833981519152604051610687906040808252600f908201526e44656c69766572795375636365737360881b6060820152608060208201819052601e908201527f466f6e6473206c6962c3a972c3a97320617520666f75726e697373657572000060a082015260c00190565b60405180910390a1610728565b6006805460ff1916811781556040516000805160206124bf83398151915290600090a260008051602061249f83398151915260405161071f906040808252600e908201526d11195b1a5d995c9e51985a5b195960921b606082015260806020820181905260129082015271436f6d6d616e646520656e206c697469676560701b60a082015260c00190565b60405180910390a15b5061073260018055565b50565b600080600a60009054906101000a90046001600160a01b03166001600160a01b031663feaf968c6040518163ffffffff1660e01b815260040160a060405180830381865afa15801561078b573d6000803e3d6000fd5b505050506040513d601f19601f820116820180604052508101906107af9190612015565b509195945050505050565b3360009081526008602052604090205460ff166108135760405162461bcd60e51b8152602060048201526017602482015276466f75726e697373657572206e6f6e20656e676167c3a960481b60448201526064016104ba565b336001600160a01b03167fc95c333e464b93db7874a4fdebcfba2f7e9ef6b6074730ecb0feb123c8ea59be838360405161084e92919061208e565b60405180910390a260008051602061249f8339815191526040516108c19060408082526010908201526f1692d41c9bdbd994dd589b5a5d1d195960821b6060820152608060208201819052601390820152721692d4081c1c9bdbd9881cdd589b5a5d1d1959606a1b60a082015260c00190565b60405180910390a15050565b6007546001600160a01b031633146109335760405162461bcd60e51b815260206004820152602360248201527f5365756c206c652062757965722070657574206372c3a9657220756e206163636044820152621bdc9960ea1b60648201526084016104ba565b600060065460ff16600781111561094c5761094c611f3d565b148061096e5750600760065460ff16600781111561096c5761096c611f3d565b145b6109ba5760405162461bcd60e51b815260206004820181905260248201527fc38974617420696e76616c69646520706f7572206c61206372c3a96174696f6e60448201526064016104ba565b428311610a155760405162461bcd60e51b8152602060048201526024808201527f4c6120646561646c696e6520646f697420c3aa7472652064616e73206c6520666044820152633aba3ab960e11b60648201526084016104ba565b6040518060a0016040528086815260200185815260200184815260200183838080601f0160208091040260200160405190810160405280939291908181526020018383808284376000920182905250938552505050602091820152815160029081559082015160035560408201516004556060820151600590610a989082612140565b50608082015160048201805460ff19166001836007811115610abc57610abc611f3d565b02179055509050507f333f645e01b5704c88baab20e34c2c6857630dfbf5b9362d131210de2ac02e118585858585604051610afb959493929190612200565b60405180910390a160006040516000805160206124bf83398151915290600090a260008051602061249f8339815191528282604051610b3b929190612226565b60405180910390a15050505050565b600280546003546004546005805493949293919291610b68906120b8565b80601f0160208091040260200160405190810160405280929190818152602001828054610b94906120b8565b8015610be15780601f10610bb657610100808354040283529160200191610be1565b820191906000526020600020905b815481529060010190602001808311610bc457829003601f168201915b5050506004909301549192505060ff1685565b610bfc6116b5565b6007546001600160a01b03163314610c675760405162461bcd60e51b815260206004820152602860248201527f5365756c206c65206275796572207065757420636f6e6669726d6572206c65206044820152671c185a595b595b9d60c21b60648201526084016104ba565b600060065460ff166007811115610c8057610c80611f3d565b14610ce15760405162461bcd60e51b815260206004820152602b60248201527f4c276163636f726420646f697420c3aa74726520656e20c3a97461742064652060448201526a2732b3b7ba34b0ba34b7b760a91b60648201526084016104ba565b600254600354600091610cf391612277565b9050808214610d505760405162461bcd60e51b815260206004820152602360248201527f4d6f6e74616e7420696e737566666973616e7420706f7572206ce280996163636044820152621bdc9960ea1b60648201526084016104ba565b600b54610d68906001600160a01b0316333085611771565b600c8290556006805460ff1916600117905560405182815233907f9250be6d331c7b11672fc0207421bfc1631fb0ddfa5479299c034ac0ec06583c9060200160405180910390a260016040516000805160206124bf83398151915290600090a260008051602061249f833981519152610de0836117af565b60405161071f919061228e565b610df56116b5565b7f16ceee8289685dd2a02b9c8ae81d2df373176ce53519e6284e2a2950d6546ffa610e1f816115c2565b6006805460ff166007811115610e3757610e37611f3d565b14610e995760405162461bcd60e51b815260206004820152602c60248201527fc38974617420696e76616c69646520706f7572206c612072c3a9736f6c75746960448201526b6f6e206475206c697469676560a01b60648201526084016104ba565b604080518082018252600b81526a2932b33ab732213abcb2b960a91b602090910152517f99470f51a0d3f4ce2d1e7b245a3f441c80cd6340caeb62b2f0f42fc3f1acf78290610eeb90859085906122c8565b604051809103902003610f31576006805460ff1916600790811790915554600c54600b54610f27926001600160a01b039182169291169061170e565b6000600c55610fc3565b604080518082018252600c81526b52656c6561736546756e647360a01b602090910152517f7f9d99b008e6e7f408f271e747de0380e73bdd74a4a60f54fe0dfdbe7e3f3d0e90610f8490859085906122c8565b604051809103902003610fc3576006805460ff1916600517905560095415610fbd57610fbd60096000815481106105d0576105d0611fe5565b6000600c555b7f6478282e06f428e8cc4a5a3f8e08080cef19dcc8ed01914a202782c93d1ad51e8383604051610ff492919061208e565b60405180910390a160065460ff16600781111561101357611013611f3d565b6040516000805160206124bf83398151915290600090a260008051602061249f83398151915283836040516110499291906122d8565b60405180910390a1506104cd60018055565b6000918252602082815260408084206001600160a01b0393909316845291905290205460ff1690565b6009818154811061109457600080fd5b6000918252602090912001546001600160a01b0316905081565b3360009081526008602052604090205460ff166111065760405162461bcd60e51b8152602060048201526016602482015275466f75726e697373657572206e6f6e2076616c69646560501b60448201526064016104ba565b600260065460ff16600781111561111f5761111f611f3d565b1461116c5760405162461bcd60e51b815260206004820152601b60248201527fc38974617420696e76616c69646520706f7572206c27656e766f69000000000060448201526064016104ba565b6006805460ff1916600417905560405133907fa766451b403b77e89b1c7b2104774ebf06c2448ece93c98b15c0680b6e40b54d90600090a260046040516000805160206124bf83398151915290600090a260008051602061249f833981519152604051611224906040808252600f908201526e13dc99195c911a5cdc185d18da1959608a1b60608201526080602082018190526010908201526f13dc99195c88191a5cdc185d18da195960821b60a082015260c00190565b60405180910390a1565b600082815260208190526040902060010154611249816115c2565b6104498383611650565b600060065460ff16600781111561126c5761126c611f3d565b146112c45760405162461bcd60e51b815260206004820152602260248201527f4163636f7264206e6f6e20656e20c3a9746174206465204e65676f746961746960448201526137b760f11b60648201526084016104ba565b3360009081526008602052604090205460ff1661133857336000818152600860205260408120805460ff191660019081179091556009805491820181559091527f6e1540171b6c0c960b71a7020d9f60077f6af931a8bbf590da0223dacf75c7af0180546001600160a01b03191690911790555b565b6007546001600160a01b031633146113945760405162461bcd60e51b815260206004820152601860248201527f5365756c206c652062757965722070657574206e6f746572000000000000000060448201526064016104ba565b60018160ff16101580156113ac575060058160ff1611155b6113f85760405162461bcd60e51b815260206004820152601f60248201527f4c61206e6f746520646f697420c3aa74726520656e747265203120657420350060448201526064016104ba565b6001600160a01b03821660009081526008602052604090205460ff1661145a5760405162461bcd60e51b8152602060048201526017602482015276466f75726e697373657572206e6f6e20656e676167c3a960481b60448201526064016104ba565b6001600160a01b038216600081815260086020908152604091829020805461ff00191661010060ff87169081029190911790915591519182527f0d54624fc9751940a1a3dc837603098fe07d6465f0a1ecc4da25c37461b146e4910160405180910390a260008051602061249f8339815191526114d98260ff166117af565b6040516108c19190612312565b6004544211156115385760405162461bcd60e51b815260206004820152601a60248201527f4c6120646561646c696e65206573742064c3a970617373c3a96500000000000060448201526064016104ba565b6006805460ff191660029081179091556040516000805160206124bf83398151915290600090a260008051602061249f833981519152604051611224906040808252600e908201526d14dd185c9d1059dc99595b595b9d60921b6060820152608060208201819052600d908201526c13dc99195c881cdd185c9d1959609a1b60a082015260c00190565b61073281336118c0565b6115d6828261105b565b6104cd576000828152602081815260408083206001600160a01b03851684529091529020805460ff1916600117905561160c3390565b6001600160a01b0316816001600160a01b0316837f2f8788117e7eff1d82e926ec794901d17c78024a50270940304540a733656f0d60405160405180910390a45050565b61165a828261105b565b156104cd576000828152602081815260408083206001600160a01b0385168085529252808320805460ff1916905551339285917ff6391f5c32d9c69d2a47ea670b442974b53935d1edc7fd64eb21e047a839171b9190a45050565b6002600154036117075760405162461bcd60e51b815260206004820152601f60248201527f5265656e7472616e637947756172643a207265656e7472616e742063616c6c0060448201526064016104ba565b6002600155565b6040516001600160a01b03831660248201526044810182905261044990849063a9059cbb60e01b906064015b60408051601f198184030181529190526020810180516001600160e01b03166001600160e01b031990931692909217909152611919565b6040516001600160a01b03808516602483015283166044820152606481018290526117a99085906323b872dd60e01b9060840161173a565b50505050565b6060816000036117d65750506040805180820190915260018152600360fc1b602082015290565b8160005b811561180057806117ea81612349565b91506117f99050600a83612378565b91506117da565b60008167ffffffffffffffff81111561181b5761181b6120a2565b6040519080825280601f01601f191660200182016040528015611845576020820181803683370190505b509050815b85156118b75761185b60018261238c565b9050600061186a600a8861239f565b6118759060306123b3565b90508060f81b83838151811061188d5761188d611fe5565b60200101906001600160f81b031916908160001a9053506118af600a88612378565b96505061184a565b50949350505050565b6118ca828261105b565b6104cd576118d7816119eb565b6118e28360206119fd565b6040516020016118f39291906123c6565b60408051601f198184030181529082905262461bcd60e51b82526104ba9160040161243b565b600061196e826040518060400160405280602081526020017f5361666545524332303a206c6f772d6c6576656c2063616c6c206661696c6564815250856001600160a01b0316611ba09092919063ffffffff16565b805190915015610449578080602001905181019061198c919061244e565b6104495760405162461bcd60e51b815260206004820152602a60248201527f5361666545524332303a204552433230206f7065726174696f6e20646964206e6044820152691bdd081cdd58d8d9595960b21b60648201526084016104ba565b606061041e6001600160a01b03831660145b60606000611a0c836002612277565b611a179060026123b3565b67ffffffffffffffff811115611a2f57611a2f6120a2565b6040519080825280601f01601f191660200182016040528015611a59576020820181803683370190505b509050600360fc1b81600081518110611a7457611a74611fe5565b60200101906001600160f81b031916908160001a905350600f60fb1b81600181518110611aa357611aa3611fe5565b60200101906001600160f81b031916908160001a9053506000611ac7846002612277565b611ad29060016123b3565b90505b6001811115611b4a576f181899199a1a9b1b9c1cb0b131b232b360811b85600f1660108110611b0657611b06611fe5565b1a60f81b828281518110611b1c57611b1c611fe5565b60200101906001600160f81b031916908160001a90535060049490941c93611b438161246b565b9050611ad5565b508315611b995760405162461bcd60e51b815260206004820181905260248201527f537472696e67733a20686578206c656e67746820696e73756666696369656e7460448201526064016104ba565b9392505050565b6060611baf8484600085611bb7565b949350505050565b606082471015611c185760405162461bcd60e51b815260206004820152602660248201527f416464726573733a20696e73756666696369656e742062616c616e636520666f6044820152651c8818d85b1b60d21b60648201526084016104ba565b600080866001600160a01b03168587604051611c349190612482565b60006040518083038185875af1925050503d8060008114611c71576040519150601f19603f3d011682016040523d82523d6000602084013e611c76565b606091505b5091509150611c8787838387611c92565b979650505050505050565b60608315611d01578251600003611cfa576001600160a01b0385163b611cfa5760405162461bcd60e51b815260206004820152601d60248201527f416464726573733a2063616c6c20746f206e6f6e2d636f6e747261637400000060448201526064016104ba565b5081611baf565b611baf8383815115611d165781518083602001fd5b8060405162461bcd60e51b81526004016104ba919061243b565b600060208284031215611d4257600080fd5b81356001600160e01b031981168114611b9957600080fd5b80356001600160a01b0381168114611d7157600080fd5b919050565b600060208284031215611d8857600080fd5b611b9982611d5a565b600060208284031215611da357600080fd5b5035919050565b60008060408385031215611dbd57600080fd5b82359150611dcd60208401611d5a565b90509250929050565b801515811461073257600080fd5b600060208284031215611df657600080fd5b8135611b9981611dd6565b60008083601f840112611e1357600080fd5b50813567ffffffffffffffff811115611e2b57600080fd5b602083019150836020828501011115611e4357600080fd5b9250929050565b60008060208385031215611e5d57600080fd5b823567ffffffffffffffff811115611e7457600080fd5b611e8085828601611e01565b90969095509350505050565b600080600080600060808688031215611ea457600080fd5b853594506020860135935060408601359250606086013567ffffffffffffffff811115611ed057600080fd5b611edc88828901611e01565b969995985093965092949392505050565b60005b83811015611f08578181015183820152602001611ef0565b50506000910152565b60008151808452611f29816020860160208601611eed565b601f01601f19169290920160200192915050565b634e487b7160e01b600052602160045260246000fd5b85815284602082015283604082015260a060608201526000611f7860a0830185611f11565b905060088310611f9857634e487b7160e01b600052602160045260246000fd5b8260808301529695505050505050565b60008060408385031215611fbb57600080fd5b611fc483611d5a565b9150602083013560ff81168114611fda57600080fd5b809150509250929050565b634e487b7160e01b600052603260045260246000fd5b805169ffffffffffffffffffff81168114611d7157600080fd5b600080600080600060a0868803121561202d57600080fd5b61203686611ffb565b945060208601519350604086015192506060860151915061205960808701611ffb565b90509295509295909350565b81835281816020850137506000828201602090810191909152601f909101601f19169091010190565b602081526000611baf602083018486612065565b634e487b7160e01b600052604160045260246000fd5b600181811c908216806120cc57607f821691505b6020821081036120ec57634e487b7160e01b600052602260045260246000fd5b50919050565b601f82111561044957600081815260208120601f850160051c810160208610156121195750805b601f850160051c820191505b8181101561213857828155600101612125565b505050505050565b815167ffffffffffffffff81111561215a5761215a6120a2565b61216e8161216884546120b8565b846120f2565b602080601f8311600181146121a3576000841561218b5750858301515b600019600386901b1c1916600185901b178555612138565b600085815260208120601f198616915b828110156121d2578886015182559484019460019091019084016121b3565b50858210156121f05787850151600019600388901b60f8161c191681555b5050505050600190811b01905550565b858152846020820152836040820152608060608201526000611c87608083018486612065565b60408152601060408201526f1059dc99595b595b9d10dc99585d195960821b6060820152608060208201526000611baf608083018486612065565b634e487b7160e01b600052601160045260246000fd5b808202811582820484141761041e5761041e612261565b60408152601060408201526f14185e5b595b9d10dbdb999a5c9b595960821b6060820152608060208201526000611b996080830184611f11565b8183823760009101908152919050565b60408152600f60408201526e111a5cdc1d5d1954995cdbdb1d9959608a1b6060820152608060208201526000611baf608083018486612065565b60408152600d60408201526c14dd5c1c1b1a595c94985d1959609a1b6060820152608060208201526000611b996080830184611f11565b60006001820161235b5761235b612261565b5060010190565b634e487b7160e01b600052601260045260246000fd5b60008261238757612387612362565b500490565b8181038181111561041e5761041e612261565b6000826123ae576123ae612362565b500690565b8082018082111561041e5761041e612261565b7f416363657373436f6e74726f6c3a206163636f756e74200000000000000000008152600083516123fe816017850160208801611eed565b7001034b99036b4b9b9b4b733903937b6329607d1b601791840191820152835161242f816028840160208801611eed565b01602801949350505050565b602081526000611b996020830184611f11565b60006020828403121561246057600080fd5b8151611b9981611dd6565b60008161247a5761247a612261565b506000190190565b60008251612494818460208701611eed565b919091019291505056febb36578214262f273c82f8bafa80a05abffa06964288abc4a6179a948f98007e99644e2a282614041fb71faaa77ebcbaafc5eb939a38b7e1b52613b2dff6f425a2646970667358221220dc206f26463beff3ace649fce332939b800f1d48105537faa2134b9608f15bf964736f6c63430008140033",
  "linkReferences": {},
  "deployedLinkReferences": {}
}